{"contracts/elections.sol":{"ElectionContract":{"abi":[{"inputs":[],"stateMutability":"nonpayable","type":"constructor"},{"anonymous":false,"inputs":[{"indexed":false,"internalType":"address","name":"admin","type":"address"}],"name":"AdminAdded","type":"event"},{"anonymous":false,"inputs":[{"indexed":false,"internalType":"address","name":"admin","type":"address"}],"name":"AdminRemoved","type":"event"},{"anonymous":false,"inputs":[{"indexed":false,"internalType":"string","name":"electionId","type":"string"}],"name":"ElectionArchived","type":"event"},{"anonymous":false,"inputs":[{"indexed":false,"internalType":"string","name":"electionId","type":"string"},{"indexed":false,"internalType":"string","name":"name","type":"string"},{"indexed":false,"internalType":"address","name":"creator","type":"address"}],"name":"ElectionCreated","type":"event"},{"anonymous":false,"inputs":[{"indexed":false,"internalType":"string","name":"electionId","type":"string"},{"indexed":false,"internalType":"bool","name":"isLive","type":"bool"}],"name":"ElectionStatusUpdated","type":"event"},{"anonymous":false,"inputs":[{"indexed":false,"internalType":"address","name":"previousOwner","type":"address"},{"indexed":false,"internalType":"address","name":"newOwner","type":"address"}],"name":"OwnershipTransferred","type":"event"},{"anonymous":false,"inputs":[{"indexed":false,"internalType":"address","name":"voter","type":"address"},{"indexed":false,"internalType":"string","name":"electionId","type":"string"},{"indexed":false,"internalType":"string[]","name":"positionIds","type":"string[]"}],"name":"Voted","type":"event"},{"inputs":[{"internalType":"address","name":"admin","type":"address"}],"name":"addAdmin","outputs":[],"stateMutability":"nonpayable","type":"function"},{"inputs":[{"internalType":"uint256","name":"","type":"uint256"}],"name":"admins","outputs":[{"internalType":"address","name":"","type":"address"}],"stateMutability":"view","type":"function"},{"inputs":[{"internalType":"string","name":"electionId","type":"string"}],"name":"archiveElection","outputs":[],"stateMutability":"nonpayable","type":"function"},{"inputs":[{"internalType":"string","name":"electionId","type":"string"},{"internalType":"string","name":"name","type":"string"},{"internalType":"string[]","name":"positionIds","type":"string[]"},{"internalType":"string[]","name":"positionNames","type":"string[]"},{"internalType":"string[][]","name":"candidateIds","type":"string[][]"},{"internalType":"string[][]","name":"candidateNames","type":"string[][]"}],"name":"createElection","outputs":[],"stateMutability":"nonpayable","type":"function"},{"inputs":[{"internalType":"uint256","name":"","type":"uint256"}],"name":"electionIds","outputs":[{"internalType":"string","name":"","type":"string"}],"stateMutability":"view","type":"function"},{"inputs":[{"internalType":"string","name":"","type":"string"}],"name":"elections","outputs":[{"internalType":"string","name":"id","type":"string"},{"internalType":"string","name":"name","type":"string"},{"internalType":"bool","name":"isLive","type":"bool"},{"internalType":"bool","name":"isArchived","type":"bool"},{"internalType":"uint256","name":"createdAt","type":"uint256"}],"stateMutability":"view","type":"function"},{"inputs":[],"name":"getActiveElectionIds","outputs":[{"internalType":"string[]","name":"","type":"string[]"}],"stateMutability":"view","type":"function"},{"inputs":[],"name":"getAdmins","outputs":[{"internalType":"address[]","name":"","type":"address[]"}],"stateMutability":"view","type":"function"},{"inputs":[],"name":"getAllElectionIds","outputs":[{"internalType":"string[]","name":"","type":"string[]"}],"stateMutability":"view","type":"function"},{"inputs":[{"internalType":"string","name":"electionId","type":"string"}],"name":"getElection","outputs":[{"internalType":"string","name":"id","type":"string"},{"internalType":"string","name":"name","type":"string"},{"internalType":"bool","name":"isLive","type":"bool"},{"internalType":"bool","name":"isArchived","type":"bool"},{"internalType":"uint256","name":"createdAt","type":"uint256"},{"components":[{"internalType":"string","name":"id","type":"string"},{"internalType":"string","name":"name","type":"string"},{"components":[{"internalType":"string","name":"id","type":"string"},{"internalType":"string","name":"name","type":"string"},{"internalType":"uint256","name":"voteCount","type":"uint256"}],"internalType":"struct ElectionContract.Candidate[]","name":"candidates","type":"tuple[]"}],"internalType":"struct ElectionContract.Position[]","name":"positions","type":"tuple[]"}],"stateMutability":"view","type":"function"},{"inputs":[{"internalType":"string","name":"electionId","type":"string"},{"internalType":"address","name":"user","type":"address"}],"name":"hasUserVoted","outputs":[{"internalType":"bool","name":"","type":"bool"}],"stateMutability":"view","type":"function"},{"inputs":[{"internalType":"address","name":"","type":"address"},{"internalType":"string","name":"","type":"string"}],"name":"hasVoted","outputs":[{"internalType":"bool","name":"","type":"bool"}],"stateMutability":"view","type":"function"},{"inputs":[{"internalType":"address","name":"","type":"address"}],"name":"isAdmin","outputs":[{"internalType":"bool","name":"","type":"bool"}],"stateMutability":"view","type":"function"},{"inputs":[],"name":"owner","outputs":[{"internalType":"address","name":"","type":"address"}],"stateMutability":"view","type":"function"},{"inputs":[{"internalType":"address","name":"admin","type":"address"}],"name":"removeAdmin","outputs":[],"stateMutability":"nonpayable","type":"function"},{"inputs":[{"internalType":"string","name":"electionId","type":"string"},{"internalType":"bool","name":"status","type":"bool"}],"name":"toggleElectionStatus","outputs":[],"stateMutability":"nonpayable","type":"function"},{"inputs":[{"internalType":"address","name":"newOwner","type":"address"}],"name":"transferOwnership","outputs":[],"stateMutability":"nonpayable","type":"function"},{"inputs":[{"internalType":"string","name":"electionId","type":"string"},{"internalType":"string[]","name":"positionIds","type":"string[]"},{"internalType":"string[]","name":"candidateIds","type":"string[]"}],"name":"voteMultiple","outputs":[],"stateMutability":"nonpayable","type":"function"}],"evm":{"bytecode":{"linkReferences":{},"object":"6080806040523460c457600080546001600160a01b0319163390811782558152600560205260409020805460ff19166001908117909155546801000000000000000081101560ae57600181018060015581101560985760016000527fb10e2d527612073b26eecdfd717e6a320cf44b4afac2b0732d9fcbe2b7fa0cf60180546001600160a01b0319163317905561200790816100ca8239f35b634e487b7160e01b600052603260045260246000fd5b634e487b7160e01b600052604160045260246000fd5b600080fdfe6080604052600436101561001257600080fd5b60003560e01c806302330a611461182757806310f28063146116e857806314bfd6d0146116a65780631785f53c1461147f57806324d7806c1461144057806331ae450b1461137457806341497385146113135780634771b5731461103c5780634a3ccc9614610f805780637048027514610ea05780638da5cb5b14610e77578063921ec12f14610d765780639b0b5985146108a35780639b96951d14610764578063c6847060146106f9578063dee40f741461065f578063e5de3eaa146101e45763f2fde38b146100e257600080fd5b346101df5760203660031901126101df577f8be0079c531659141344cd1fd0a4f28419497f9722a3daafe3b4186f6b6457e0604061011e611a79565b61013360018060a01b03600054163314611caf565b6001600160a01b03811690610149821515611d51565b81600052600560205260ff8360002054161561018f575b50600080546001600160a01b03198116831790915582516001600160a01b0390911681526020810191909152a1005b6101b09082600052600560205283600020600160ff19825416179055611d8f565b7f44d6d25963f097ad14f29f06854a01f575648a1ef82f30e562ccd3889717e33960208351838152a138610160565b600080fd5b346101df5760603660031901126101df576004356001600160401b0381116101df57610214903690600401611a8f565b6024356001600160401b0381116101df57610233903690600401611b22565b6044356001600160401b0381116101df57610252903690600401611b22565b604051610287610280855192602081818901956102708183896119d8565b81016003815203019020546118be565b1515611d05565b60ff6002604051602081885161029e8183896119d8565b8101600381520301902001541615610623576102e060ff600260405160208189516102ca81838a6119d8565b81016003815203019020015460081c1615611e67565b33600052600460205260ff6102f9604060002086611ae5565b54166105ee5782518251036105a95790610321602085936040518093819287519283916119d8565b8101600381520301902092600460009401905b805185101561053157600093845b8354811015610528576103558185611fb5565b506040516103798161036b602082018095611c1e565b03601f198101835282611913565b5190206103868885611c9b565b516040516103b5602082816103a481830196878151938492016119d8565b81010301601f198101835282611913565b519020146103c557600101610342565b90959194506001906000908282815b61047a575b50505015610436575b156103f1576001019392610334565b60405162461bcd60e51b815260206004820152601e60248201527f506f736974696f6e206e6f7420666f756e6420696e20656c656374696f6e00006044820152606490fd5b606460405162461bcd60e51b815260206004820152602060248201527f43616e646964617465206e6f7420666f756e6420666f7220706f736974696f6e6044820152fd5b60026104868489611fb5565b500154811015610523576104a78160026104a0868b611fb5565b5001611fb5565b506040516104bd8161036b602082018095611c1e565b5190206104ca878a611c9b565b516040516104e8602082816103a481830196878151938492016119d8565b519020146104f8578101816103d4565b905060028093506104a061050c9388611fb5565b50016105188154611c8c565b9055808782816103d9565b6103d9565b509490936103e2565b610596846105a47f7afa23c1292dc2543c3ea632824655ed222c5a9e5a4773bcd0ad2bc34f941b1593336000526004602052610571604060002084611ae5565b600160ff198254161790556040519384933385526060602086015260608501906119fb565b908382036040850152611a20565b0390a1005b60405162461bcd60e51b815260206004820152601860248201527f4d69736d617463686564206172726179206c656e6774687300000000000000006044820152606490fd5b60405162461bcd60e51b815260206004820152600d60248201526c105b1c9958591e481d9bdd1959609a1b6044820152606490fd5b60405162461bcd60e51b8152602060048201526014602482015273456c656374696f6e206973206e6f74206c69766560601b6044820152606490fd5b346101df5760003660031901126101df5760025461067c81611b0b565b9061068a6040519283611913565b8082526020820160026000527f405787fa12a823e0f2b7631cc41b3ba8828b3321ca811111fa75cd3aa3bb5ace6000915b8383106106dc57604051602080825281906106d890820188611a20565b0390f35b6001602081926106eb85611934565b8152019201920191906106bb565b346101df5760403660031901126101df57610712611a79565b602435906001600160401b0382116101df5761075860ff9161073a6020943690600401611a8f565b6001600160a01b039091166000908152600485526040902090611ae5565b54166040519015158152f35b346101df5760203660031901126101df576004356001600160401b0381116101df57610794903690600401611a8f565b3360005260056020526107ae60ff60406000205416611e11565b6040516107cc610280835192602081818701956102708183896119d8565b60ff600260405160208186516107e38183896119d8565b8101600381520301902001541661085e577fd957379e018d73b2da5e7482a4c88a0c4f2d197d05d0df37674e52e2a273465291600261083260206105a4946040518093819287519283916119d8565b810160038152030190200161010061ff00198254161790556040519182916020835260208301906119fb565b60405162461bcd60e51b815260206004820152601e60248201527f43616e6e6f7420617263686976652061206c69766520656c656374696f6e00006044820152606490fd5b346101df5760c03660031901126101df576004356001600160401b0381116101df576108d3903690600401611a8f565b6024356001600160401b0381116101df576108f2903690600401611a8f565b906044356001600160401b0381116101df57610912903690600401611b22565b906064356001600160401b0381116101df57610932903690600401611b22565b906084356001600160401b0381116101df57610952903690600401611ba0565b9160a4356001600160401b0381116101df57610972903690600401611ba0565b9433600052600560205261098d60ff60406000205416611e11565b6040516109a8845191602081818801946102708183886119d8565b610d31578551835103610cf3578551855103610ca2578551875103610c4b5760206109e39160409793959697518093819289519283916119d8565b81016003815203019020926109f88585611eaa565b610a058160018601611eaa565b60028401805461ffff19166001179055426003850155600093600401925b8251851015610bc4578354600160401b811015610b5857806001610a4a9201865585611fb5565b5093610a60610a598786611c9b565b5186611eaa565b610a77610a6d8784611c9b565b5160018701611eaa565b610a818689611c9b565b5151610a8d878b611c9b565b515103610b7f578860026000989601975b610aa8888b611c9b565b5151811015610b6e57610ad581610ac88a610ace838f83610ac891611c9b565b51611c9b565b5195611c9b565b5160405192610ae3846118f8565b8352602083019081526040830190600082528a54600160401b811015610b5857806001610b1392018d558c611fb5565b929092610b4257610b36600292610b2d6001975186611eaa565b51868501611eaa565b51910155018990610a9e565b634e487b7160e01b600052600060045260246000fd5b634e487b7160e01b600052604160045260246000fd5b509496506001909501949350610a23565b60405162461bcd60e51b815260206004820152601760248201527f43616e6469646174652064617461206d69736d617463680000000000000000006044820152606490fd5b8582600254600160401b811015610b5857806001610be59201600255611872565b929092610b4257610c40610c3292610c1e837f8fa439cf7090296b73eb06da904a8b179d6e9a0074f0bb318209e3b961ce2d5496611eaa565b6040519384936060855260608501906119fb565b9083820360208501526119fb565b3360408301520390a1005b60405162461bcd60e51b815260206004820152602960248201527f506f736974696f6e20616e642063616e646964617465206e616d652064617461604482015268040dad2e6dac2e8c6d60bb1b6064820152608490fd5b60405162461bcd60e51b8152602060048201526024808201527f506f736974696f6e20616e642063616e6469646174652064617461206d69736d6044820152630c2e8c6d60e31b6064820152608490fd5b60405162461bcd60e51b81526020600482015260166024820152750a0dee6d2e8d2dedc40c8c2e8c240dad2e6dac2e8c6d60531b6044820152606490fd5b60405162461bcd60e51b815260206004820152601760248201527f456c656374696f6e20616c7265616479206578697374730000000000000000006044820152606490fd5b346101df5760403660031901126101df576004356001600160401b0381116101df57610da6903690600401611a8f565b6024358015158091036101df577f7e64ddefc328088476333ae345c8484a8102e01ddfeffc0ab12120d413575b2b91610e6c91336000526005602052610df360ff60406000205416611e11565b6002610e406020604051610e176102808751928481818b01956102708183896119d8565b610e2f60ff8560405185818b516102ca81838a6119d8565b6040518093819288519283916119d8565b810160038152030190200160ff1981541660ff83161790556040519283926040845260408401906119fb565b9060208301520390a1005b346101df5760003660031901126101df576000546040516001600160a01b039091168152602090f35b346101df5760203660031901126101df57610eb9611a79565b610ece60018060a01b03600054163314611caf565b6001600160a01b03811690610ee4821515611d51565b81600052600560205260ff60406000205416610f485781610f3f6020927f44d6d25963f097ad14f29f06854a01f575648a1ef82f30e562ccd3889717e33994600052600584526040600020600160ff19825416179055611d8f565b604051908152a1005b60405162461bcd60e51b815260206004820152601060248201526f20b63932b0b23c9030b71030b236b4b760811b6044820152606490fd5b346101df5760203660031901126101df576004356001600160401b0381116101df57610fcb6020610fb861100f933690600401611a8f565b81604051938285809451938492016119d8565b81016003815203019020610fde81611934565b90610feb60018201611934565b60ff61101d600360028501549401549260405196879660a0885260a08801906119fb565b9086820360208801526119fb565b928181161515604086015260081c161515606084015260808301520390f35b346101df5760203660031901126101df576004356001600160401b0381116101df5760206110716110a0923690600401611a8f565b6040519061108f61028082519385818186019661027081838a6119d8565b6040519384928392519283916119d8565b81016003815203019020600281015490600381015460048201906110cf60016110c885611934565b9401611934565b908254916110dc83611b0b565b926110ea6040519485611913565b80845260208401809560005260206000206000915b83831061124d575050505061113360ff916111256040519760c0895260c08901906119fb565b9087820360208901526119fb565b958181161515604087015260081c1615156060850152608084015282840360a084015251808452602084019060208160051b86010192916000905b82821061117b5785850386f35b90919293601f19878203018252845160406111b46111a283516060865260608601906119fb565b602084015185820360208701526119fb565b910151916040818303910152815180825260208201906020808260051b85010194019260005b8281106111fa57505050505060208060019296019201920190929161116e565b9091929394602080600192601f1986820301885288519060408061123a61122a85516060865260608601906119fb565b86860151858203888701526119fb565b93015191015297019501939291016111da565b604051611259816118f8565b61126283611934565b815261127060018401611934565b602082015260028301805461128481611b0b565b916112926040519384611913565b81835260208301906000526020600020906000905b8382106112ce575050505060019282602092604060039501528152019201920191906110ff565b600360206001926040516112e1816118f8565b6112ea87611934565b81526112f7858801611934565b83820152600287015460408201528152019301910190916112a7565b346101df5760403660031901126101df576004356001600160401b0381116101df57611343903690600401611a8f565b6024356001600160a01b03811691908290036101df5761075860ff9160209360005260048452604060002090611ae5565b346101df5760003660031901126101df576040518060206001549283815201809260016000527fb10e2d527612073b26eecdfd717e6a320cf44b4afac2b0732d9fcbe2b7fa0cf69060005b81811061142157505050816113d5910382611913565b6040519182916020830190602084525180915260408301919060005b8181106113ff575050500390f35b82516001600160a01b03168452859450602093840193909201916001016113f1565b82546001600160a01b03168452602090930192600192830192016113bf565b346101df5760203660031901126101df576001600160a01b03611461611a79565b166000526005602052602060ff604060002054166040519015158152f35b346101df5760203660031901126101df57611498611a79565b6000546001600160a01b0316906114b0338314611caf565b6001600160a01b03169081146116615780600052600560205260ff604060002054161561162d576000818152600560205260408120805460ff191690555b60015490818110156116025782611504826118a3565b905460039190911b1c6001600160a01b0316146115255760019150016114ee565b60001982019182116115ec5761155861154061157c936118a3565b905460039190911b1c6001600160a01b0316916118a3565b81546001600160a01b0393841660039290921b91821b9390911b1916919091179055565b60015480156115d6577fa3b62bc36326052d97ea62d63c3d60308ed4c3ea8ac079dd8499f1e9c4f80c0f91602091600019016115b7816118a3565b81549060018060a01b039060031b1b19169055600155604051908152a1005b634e487b7160e01b600052603160045260246000fd5b634e487b7160e01b600052601160045260246000fd5b505060207fa3b62bc36326052d97ea62d63c3d60308ed4c3ea8ac079dd8499f1e9c4f80c0f91610f3f565b60405162461bcd60e51b815260206004820152600c60248201526b2737ba1030b71030b236b4b760a11b6044820152606490fd5b60405162461bcd60e51b815260206004820152601e60248201527f43616e6e6f742072656d6f7665206f776e65722066726f6d2061646d696e00006044820152606490fd5b346101df5760203660031901126101df576004356001548110156101df576116cf6020916118a3565b905460405160039290921b1c6001600160a01b03168152f35b346101df5760003660031901126101df57600080600254905b8181106117e5575061171282611b0b565b916117206040519384611913565b80835261172f601f1991611b0b565b0160005b8181106117d45750506000805b82811061175d57604051602080825281906106d890820187611a20565b60ff600261177c602061176f85611872565b5060405192838092611c1e565b6003815203019020015460081c1615611798575b600101611740565b906117cc6001916117b16117ab85611872565b50611934565b6117bb8288611c9b565b526117c68187611c9b565b50611c8c565b919050611790565b806060602080938701015201611733565b60ff60026117f7602061176f85611872565b6003815203019020015460081c1615611813575b600101611701565b9161181f600191611c8c565b92905061180b565b346101df5760203660031901126101df576004356002548110156101df5761184e90611872565b610b425761185e6106d891611934565b6040519182916020835260208301906119fb565b60025481101561188d57600260005260206000200190600090565b634e487b7160e01b600052603260045260246000fd5b60015481101561188d57600160005260206000200190600090565b90600182811c921680156118ee575b60208310146118d857565b634e487b7160e01b600052602260045260246000fd5b91607f16916118cd565b606081019081106001600160401b03821117610b5857604052565b90601f801991011681019081106001600160401b03821117610b5857604052565b9060405191826000825492611948846118be565b80845293600181169081156119b6575060011461196f575b5061196d92500383611913565b565b90506000929192526020600020906000915b81831061199a57505090602061196d9282010138611960565b6020919350806001915483858901015201910190918492611981565b90506020925061196d94915060ff191682840152151560051b82010138611960565b60005b8381106119eb5750506000910152565b81810151838201526020016119db565b90602091611a14815180928185528580860191016119d8565b601f01601f1916010190565b9080602083519182815201916020808360051b8301019401926000915b838310611a4c57505050505090565b9091929394602080611a6a600193601f1986820301875289516119fb565b97019301930191939290611a3d565b600435906001600160a01b03821682036101df57565b81601f820112156101df578035906001600160401b038211610b585760405192611ac3601f8401601f191660200185611913565b828452602083830101116101df57816000926020809301838601378301015290565b602090611aff9282604051948386809551938492016119d8565b82019081520301902090565b6001600160401b038111610b585760051b60200190565b9080601f830112156101df578135611b3981611b0b565b92611b476040519485611913565b81845260208085019260051b820101918383116101df5760208201905b838210611b7357505050505090565b81356001600160401b0381116101df57602091611b9587848094880101611a8f565b815201910190611b64565b9080601f830112156101df578135611bb781611b0b565b92611bc56040519485611913565b81845260208085019260051b820101918383116101df5760208201905b838210611bf157505050505090565b81356001600160401b0381116101df57602091611c1387848094880101611b22565b815201910190611be2565b60009291815491611c2e836118be565b9260018116908115611c795750600114611c4757505050565b909192935060005260206000206000905b838210611c655750500190565b600181602092548486015201910190611c58565b60ff191683525050811515909102019150565b60001981146115ec5760010190565b805182101561188d5760209160051b010190565b15611cb657565b60405162461bcd60e51b815260206004820152602160248201527f4f6e6c79206f776e65722063616e2063616c6c20746869732066756e6374696f6044820152603760f91b6064820152608490fd5b15611d0c57565b60405162461bcd60e51b815260206004820152601760248201527f456c656374696f6e20646f6573206e6f742065786973740000000000000000006044820152606490fd5b15611d5857565b60405162461bcd60e51b815260206004820152600f60248201526e496e76616c6964206164647265737360881b6044820152606490fd5b9060015491600160401b831015610b585760018301600155600092600154811015611dfd5760019093527fb10e2d527612073b26eecdfd717e6a320cf44b4afac2b0732d9fcbe2b7fa0cf690920180546001600160a01b0319166001600160a01b0390931692909217909155565b634e487b7160e01b84526032600452602484fd5b15611e1857565b60405162461bcd60e51b815260206004820152602160248201527f4f6e6c792061646d696e2063616e2063616c6c20746869732066756e6374696f6044820152603760f91b6064820152608490fd5b15611e6e57565b60405162461bcd60e51b8152602060048201526014602482015273115b1958dd1a5bdb881a5cc8185c98da1a5d995960621b6044820152606490fd5b91909182516001600160401b038111610b5857611ec782546118be565b601f8111611f6d575b506020601f8211600114611f0b5781929394600092611f00575b50508160011b916000199060031b1c1916179055565b015190503880611eea565b601f1982169083600052806000209160005b818110611f5557509583600195969710611f3c575b505050811b019055565b015160001960f88460031b161c19169055388080611f32565b9192602060018192868b015181550194019201611f1d565b826000526020600020601f830160051c81019160208410611fab575b601f0160051c01905b818110611f9f5750611ed0565b60008155600101611f92565b9091508190611f89565b805482101561188d57600052600360206000209102019060009056fea2646970667358221220a0342d2bc317562c5c607e04cbe277d0f37337ac9e56cd05afd7fffc532c325664736f6c634300081c0033","opcodes":"PUSH1 0x80 DUP1 PUSH1 0x40 MSTORE CALLVALUE PUSH1 0xC4 JUMPI PUSH1 0x0 DUP1 SLOAD PUSH1 0x1 PUSH1 0x1 PUSH1 0xA0 SHL SUB NOT AND CALLER SWAP1 DUP2 OR DUP3 SSTORE DUP2 MSTORE PUSH1 0x5 PUSH1 0x20 MSTORE PUSH1 0x40 SWAP1 KECCAK256 DUP1 SLOAD PUSH1 0xFF NOT AND PUSH1 0x1 SWAP1 DUP2 OR SWAP1 SWAP2 SSTORE SLOAD PUSH9 0x10000000000000000 DUP2 LT ISZERO PUSH1 0xAE JUMPI PUSH1 0x1 DUP2 ADD DUP1 PUSH1 0x1 SSTORE DUP2 LT ISZERO PUSH1 0x98 JUMPI PUSH1 0x1 PUSH1 0x0 MSTORE PUSH32 0xB10E2D527612073B26EECDFD717E6A320CF44B4AFAC2B0732D9FCBE2B7FA0CF6 ADD DUP1 SLOAD PUSH1 0x1 PUSH1 0x1 PUSH1 0xA0 SHL SUB NOT AND CALLER OR SWAP1 SSTORE PUSH2 0x2007 SWAP1 DUP2 PUSH2 0xCA DUP3 CODECOPY RETURN JUMPDEST PUSH4 0x4E487B71 PUSH1 0xE0 SHL PUSH1 0x0 MSTORE PUSH1 0x32 PUSH1 0x4 MSTORE PUSH1 0x24 PUSH1 0x0 REVERT JUMPDEST PUSH4 0x4E487B71 PUSH1 0xE0 SHL PUSH1 0x0 MSTORE PUSH1 0x41 PUSH1 0x4 MSTORE PUSH1 0x24 PUSH1 0x0 REVERT JUMPDEST PUSH1 0x0 DUP1 REVERT INVALID PUSH1 0x80 PUSH1 0x40 MSTORE PUSH1 0x4 CALLDATASIZE LT ISZERO PUSH2 0x12 JUMPI PUSH1 0x0 DUP1 REVERT JUMPDEST PUSH1 0x0 CALLDATALOAD PUSH1 0xE0 SHR DUP1 PUSH4 0x2330A61 EQ PUSH2 0x1827 JUMPI DUP1 PUSH4 0x10F28063 EQ PUSH2 0x16E8 JUMPI DUP1 PUSH4 0x14BFD6D0 EQ PUSH2 0x16A6 JUMPI DUP1 PUSH4 0x1785F53C EQ PUSH2 0x147F JUMPI DUP1 PUSH4 0x24D7806C EQ PUSH2 0x1440 JUMPI DUP1 PUSH4 0x31AE450B EQ PUSH2 0x1374 JUMPI DUP1 PUSH4 0x41497385 EQ PUSH2 0x1313 JUMPI DUP1 PUSH4 0x4771B573 EQ PUSH2 0x103C JUMPI DUP1 PUSH4 0x4A3CCC96 EQ PUSH2 0xF80 JUMPI DUP1 PUSH4 0x70480275 EQ PUSH2 0xEA0 JUMPI DUP1 PUSH4 0x8DA5CB5B EQ PUSH2 0xE77 JUMPI DUP1 PUSH4 0x921EC12F EQ PUSH2 0xD76 JUMPI DUP1 PUSH4 0x9B0B5985 EQ PUSH2 0x8A3 JUMPI DUP1 PUSH4 0x9B96951D EQ PUSH2 0x764 JUMPI DUP1 PUSH4 0xC6847060 EQ PUSH2 0x6F9 JUMPI DUP1 PUSH4 0xDEE40F74 EQ PUSH2 0x65F JUMPI DUP1 PUSH4 0xE5DE3EAA EQ PUSH2 0x1E4 JUMPI PUSH4 0xF2FDE38B EQ PUSH2 0xE2 JUMPI PUSH1 0x0 DUP1 REVERT JUMPDEST CALLVALUE PUSH2 0x1DF JUMPI PUSH1 0x20 CALLDATASIZE PUSH1 0x3 NOT ADD SLT PUSH2 0x1DF JUMPI PUSH32 0x8BE0079C531659141344CD1FD0A4F28419497F9722A3DAAFE3B4186F6B6457E0 PUSH1 0x40 PUSH2 0x11E PUSH2 0x1A79 JUMP JUMPDEST PUSH2 0x133 PUSH1 0x1 DUP1 PUSH1 0xA0 SHL SUB PUSH1 0x0 SLOAD AND CALLER EQ PUSH2 0x1CAF JUMP JUMPDEST PUSH1 0x1 PUSH1 0x1 PUSH1 0xA0 SHL SUB DUP2 AND SWAP1 PUSH2 0x149 DUP3 ISZERO ISZERO PUSH2 0x1D51 JUMP JUMPDEST DUP2 PUSH1 0x0 MSTORE PUSH1 0x5 PUSH1 0x20 MSTORE PUSH1 0xFF DUP4 PUSH1 0x0 KECCAK256 SLOAD AND ISZERO PUSH2 0x18F JUMPI JUMPDEST POP PUSH1 0x0 DUP1 SLOAD PUSH1 0x1 PUSH1 0x1 PUSH1 0xA0 SHL SUB NOT DUP2 AND DUP4 OR SWAP1 SWAP2 SSTORE DUP3 MLOAD PUSH1 0x1 PUSH1 0x1 PUSH1 0xA0 SHL SUB SWAP1 SWAP2 AND DUP2 MSTORE PUSH1 0x20 DUP2 ADD SWAP2 SWAP1 SWAP2 MSTORE LOG1 STOP JUMPDEST PUSH2 0x1B0 SWAP1 DUP3 PUSH1 0x0 MSTORE PUSH1 0x5 PUSH1 0x20 MSTORE DUP4 PUSH1 0x0 KECCAK256 PUSH1 0x1 PUSH1 0xFF NOT DUP3 SLOAD AND OR SWAP1 SSTORE PUSH2 0x1D8F JUMP JUMPDEST PUSH32 0x44D6D25963F097AD14F29F06854A01F575648A1EF82F30E562CCD3889717E339 PUSH1 0x20 DUP4 MLOAD DUP4 DUP2 MSTORE LOG1 CODESIZE PUSH2 0x160 JUMP JUMPDEST PUSH1 0x0 DUP1 REVERT JUMPDEST CALLVALUE PUSH2 0x1DF JUMPI PUSH1 0x60 CALLDATASIZE PUSH1 0x3 NOT ADD SLT PUSH2 0x1DF JUMPI PUSH1 0x4 CALLDATALOAD PUSH1 0x1 PUSH1 0x1 PUSH1 0x40 SHL SUB DUP2 GT PUSH2 0x1DF JUMPI PUSH2 0x214 SWAP1 CALLDATASIZE SWAP1 PUSH1 0x4 ADD PUSH2 0x1A8F JUMP JUMPDEST PUSH1 0x24 CALLDATALOAD PUSH1 0x1 PUSH1 0x1 PUSH1 0x40 SHL SUB DUP2 GT PUSH2 0x1DF JUMPI PUSH2 0x233 SWAP1 CALLDATASIZE SWAP1 PUSH1 0x4 ADD PUSH2 0x1B22 JUMP JUMPDEST PUSH1 0x44 CALLDATALOAD PUSH1 0x1 PUSH1 0x1 PUSH1 0x40 SHL SUB DUP2 GT PUSH2 0x1DF JUMPI PUSH2 0x252 SWAP1 CALLDATASIZE SWAP1 PUSH1 0x4 ADD PUSH2 0x1B22 JUMP JUMPDEST PUSH1 0x40 MLOAD PUSH2 0x287 PUSH2 0x280 DUP6 MLOAD SWAP3 PUSH1 0x20 DUP2 DUP2 DUP10 ADD SWAP6 PUSH2 0x270 DUP2 DUP4 DUP10 PUSH2 0x19D8 JUMP JUMPDEST DUP2 ADD PUSH1 0x3 DUP2 MSTORE SUB ADD SWAP1 KECCAK256 SLOAD PUSH2 0x18BE JUMP JUMPDEST ISZERO ISZERO PUSH2 0x1D05 JUMP JUMPDEST PUSH1 0xFF PUSH1 0x2 PUSH1 0x40 MLOAD PUSH1 0x20 DUP2 DUP9 MLOAD PUSH2 0x29E DUP2 DUP4 DUP10 PUSH2 0x19D8 JUMP JUMPDEST DUP2 ADD PUSH1 0x3 DUP2 MSTORE SUB ADD SWAP1 KECCAK256 ADD SLOAD AND ISZERO PUSH2 0x623 JUMPI PUSH2 0x2E0 PUSH1 0xFF PUSH1 0x2 PUSH1 0x40 MLOAD PUSH1 0x20 DUP2 DUP10 MLOAD PUSH2 0x2CA DUP2 DUP4 DUP11 PUSH2 0x19D8 JUMP JUMPDEST DUP2 ADD PUSH1 0x3 DUP2 MSTORE SUB ADD SWAP1 KECCAK256 ADD SLOAD PUSH1 0x8 SHR AND ISZERO PUSH2 0x1E67 JUMP JUMPDEST CALLER PUSH1 0x0 MSTORE PUSH1 0x4 PUSH1 0x20 MSTORE PUSH1 0xFF PUSH2 0x2F9 PUSH1 0x40 PUSH1 0x0 KECCAK256 DUP7 PUSH2 0x1AE5 JUMP JUMPDEST SLOAD AND PUSH2 0x5EE JUMPI DUP3 MLOAD DUP3 MLOAD SUB PUSH2 0x5A9 JUMPI SWAP1 PUSH2 0x321 PUSH1 0x20 DUP6 SWAP4 PUSH1 0x40 MLOAD DUP1 SWAP4 DUP2 SWAP3 DUP8 MLOAD SWAP3 DUP4 SWAP2 PUSH2 0x19D8 JUMP JUMPDEST DUP2 ADD PUSH1 0x3 DUP2 MSTORE SUB ADD SWAP1 KECCAK256 SWAP3 PUSH1 0x4 PUSH1 0x0 SWAP5 ADD SWAP1 JUMPDEST DUP1 MLOAD DUP6 LT ISZERO PUSH2 0x531 JUMPI PUSH1 0x0 SWAP4 DUP5 JUMPDEST DUP4 SLOAD DUP2 LT ISZERO PUSH2 0x528 JUMPI PUSH2 0x355 DUP2 DUP6 PUSH2 0x1FB5 JUMP JUMPDEST POP PUSH1 0x40 MLOAD PUSH2 0x379 DUP2 PUSH2 0x36B PUSH1 0x20 DUP3 ADD DUP1 SWAP6 PUSH2 0x1C1E JUMP JUMPDEST SUB PUSH1 0x1F NOT DUP2 ADD DUP4 MSTORE DUP3 PUSH2 0x1913 JUMP JUMPDEST MLOAD SWAP1 KECCAK256 PUSH2 0x386 DUP9 DUP6 PUSH2 0x1C9B JUMP JUMPDEST MLOAD PUSH1 0x40 MLOAD PUSH2 0x3B5 PUSH1 0x20 DUP3 DUP2 PUSH2 0x3A4 DUP2 DUP4 ADD SWAP7 DUP8 DUP2 MLOAD SWAP4 DUP5 SWAP3 ADD PUSH2 0x19D8 JUMP JUMPDEST DUP2 ADD SUB ADD PUSH1 0x1F NOT DUP2 ADD DUP4 MSTORE DUP3 PUSH2 0x1913 JUMP JUMPDEST MLOAD SWAP1 KECCAK256 EQ PUSH2 0x3C5 JUMPI PUSH1 0x1 ADD PUSH2 0x342 JUMP JUMPDEST SWAP1 SWAP6 SWAP2 SWAP5 POP PUSH1 0x1 SWAP1 PUSH1 0x0 SWAP1 DUP3 DUP3 DUP2 JUMPDEST PUSH2 0x47A JUMPI JUMPDEST POP POP POP ISZERO PUSH2 0x436 JUMPI JUMPDEST ISZERO PUSH2 0x3F1 JUMPI PUSH1 0x1 ADD SWAP4 SWAP3 PUSH2 0x334 JUMP JUMPDEST PUSH1 0x40 MLOAD PUSH3 0x461BCD PUSH1 0xE5 SHL DUP2 MSTORE PUSH1 0x20 PUSH1 0x4 DUP3 ADD MSTORE PUSH1 0x1E PUSH1 0x24 DUP3 ADD MSTORE PUSH32 0x506F736974696F6E206E6F7420666F756E6420696E20656C656374696F6E0000 PUSH1 0x44 DUP3 ADD MSTORE PUSH1 0x64 SWAP1 REVERT JUMPDEST PUSH1 0x64 PUSH1 0x40 MLOAD PUSH3 0x461BCD PUSH1 0xE5 SHL DUP2 MSTORE PUSH1 0x20 PUSH1 0x4 DUP3 ADD MSTORE PUSH1 0x20 PUSH1 0x24 DUP3 ADD MSTORE PUSH32 0x43616E646964617465206E6F7420666F756E6420666F7220706F736974696F6E PUSH1 0x44 DUP3 ADD MSTORE REVERT JUMPDEST PUSH1 0x2 PUSH2 0x486 DUP5 DUP10 PUSH2 0x1FB5 JUMP JUMPDEST POP ADD SLOAD DUP2 LT ISZERO PUSH2 0x523 JUMPI PUSH2 0x4A7 DUP2 PUSH1 0x2 PUSH2 0x4A0 DUP7 DUP12 PUSH2 0x1FB5 JUMP JUMPDEST POP ADD PUSH2 0x1FB5 JUMP JUMPDEST POP PUSH1 0x40 MLOAD PUSH2 0x4BD DUP2 PUSH2 0x36B PUSH1 0x20 DUP3 ADD DUP1 SWAP6 PUSH2 0x1C1E JUMP JUMPDEST MLOAD SWAP1 KECCAK256 PUSH2 0x4CA DUP8 DUP11 PUSH2 0x1C9B JUMP JUMPDEST MLOAD PUSH1 0x40 MLOAD PUSH2 0x4E8 PUSH1 0x20 DUP3 DUP2 PUSH2 0x3A4 DUP2 DUP4 ADD SWAP7 DUP8 DUP2 MLOAD SWAP4 DUP5 SWAP3 ADD PUSH2 0x19D8 JUMP JUMPDEST MLOAD SWAP1 KECCAK256 EQ PUSH2 0x4F8 JUMPI DUP2 ADD DUP2 PUSH2 0x3D4 JUMP JUMPDEST SWAP1 POP PUSH1 0x2 DUP1 SWAP4 POP PUSH2 0x4A0 PUSH2 0x50C SWAP4 DUP9 PUSH2 0x1FB5 JUMP JUMPDEST POP ADD PUSH2 0x518 DUP2 SLOAD PUSH2 0x1C8C JUMP JUMPDEST SWAP1 SSTORE DUP1 DUP8 DUP3 DUP2 PUSH2 0x3D9 JUMP JUMPDEST PUSH2 0x3D9 JUMP JUMPDEST POP SWAP5 SWAP1 SWAP4 PUSH2 0x3E2 JUMP JUMPDEST PUSH2 0x596 DUP5 PUSH2 0x5A4 PUSH32 0x7AFA23C1292DC2543C3EA632824655ED222C5A9E5A4773BCD0AD2BC34F941B15 SWAP4 CALLER PUSH1 0x0 MSTORE PUSH1 0x4 PUSH1 0x20 MSTORE PUSH2 0x571 PUSH1 0x40 PUSH1 0x0 KECCAK256 DUP5 PUSH2 0x1AE5 JUMP JUMPDEST PUSH1 0x1 PUSH1 0xFF NOT DUP3 SLOAD AND OR SWAP1 SSTORE PUSH1 0x40 MLOAD SWAP4 DUP5 SWAP4 CALLER DUP6 MSTORE PUSH1 0x60 PUSH1 0x20 DUP7 ADD MSTORE PUSH1 0x60 DUP6 ADD SWAP1 PUSH2 0x19FB JUMP JUMPDEST SWAP1 DUP4 DUP3 SUB PUSH1 0x40 DUP6 ADD MSTORE PUSH2 0x1A20 JUMP JUMPDEST SUB SWAP1 LOG1 STOP JUMPDEST PUSH1 0x40 MLOAD PUSH3 0x461BCD PUSH1 0xE5 SHL DUP2 MSTORE PUSH1 0x20 PUSH1 0x4 DUP3 ADD MSTORE PUSH1 0x18 PUSH1 0x24 DUP3 ADD MSTORE PUSH32 0x4D69736D617463686564206172726179206C656E677468730000000000000000 PUSH1 0x44 DUP3 ADD MSTORE PUSH1 0x64 SWAP1 REVERT JUMPDEST PUSH1 0x40 MLOAD PUSH3 0x461BCD PUSH1 0xE5 SHL DUP2 MSTORE PUSH1 0x20 PUSH1 0x4 DUP3 ADD MSTORE PUSH1 0xD PUSH1 0x24 DUP3 ADD MSTORE PUSH13 0x105B1C9958591E481D9BDD1959 PUSH1 0x9A SHL PUSH1 0x44 DUP3 ADD MSTORE PUSH1 0x64 SWAP1 REVERT JUMPDEST PUSH1 0x40 MLOAD PUSH3 0x461BCD PUSH1 0xE5 SHL DUP2 MSTORE PUSH1 0x20 PUSH1 0x4 DUP3 ADD MSTORE PUSH1 0x14 PUSH1 0x24 DUP3 ADD MSTORE PUSH20 0x456C656374696F6E206973206E6F74206C697665 PUSH1 0x60 SHL PUSH1 0x44 DUP3 ADD MSTORE PUSH1 0x64 SWAP1 REVERT JUMPDEST CALLVALUE PUSH2 0x1DF JUMPI PUSH1 0x0 CALLDATASIZE PUSH1 0x3 NOT ADD SLT PUSH2 0x1DF JUMPI PUSH1 0x2 SLOAD PUSH2 0x67C DUP2 PUSH2 0x1B0B JUMP JUMPDEST SWAP1 PUSH2 0x68A PUSH1 0x40 MLOAD SWAP3 DUP4 PUSH2 0x1913 JUMP JUMPDEST DUP1 DUP3 MSTORE PUSH1 0x20 DUP3 ADD PUSH1 0x2 PUSH1 0x0 MSTORE PUSH32 0x405787FA12A823E0F2B7631CC41B3BA8828B3321CA811111FA75CD3AA3BB5ACE PUSH1 0x0 SWAP2 JUMPDEST DUP4 DUP4 LT PUSH2 0x6DC JUMPI PUSH1 0x40 MLOAD PUSH1 0x20 DUP1 DUP3 MSTORE DUP2 SWAP1 PUSH2 0x6D8 SWAP1 DUP3 ADD DUP9 PUSH2 0x1A20 JUMP JUMPDEST SUB SWAP1 RETURN JUMPDEST PUSH1 0x1 PUSH1 0x20 DUP2 SWAP3 PUSH2 0x6EB DUP6 PUSH2 0x1934 JUMP JUMPDEST DUP2 MSTORE ADD SWAP3 ADD SWAP3 ADD SWAP2 SWAP1 PUSH2 0x6BB JUMP JUMPDEST CALLVALUE PUSH2 0x1DF JUMPI PUSH1 0x40 CALLDATASIZE PUSH1 0x3 NOT ADD SLT PUSH2 0x1DF JUMPI PUSH2 0x712 PUSH2 0x1A79 JUMP JUMPDEST PUSH1 0x24 CALLDATALOAD SWAP1 PUSH1 0x1 PUSH1 0x1 PUSH1 0x40 SHL SUB DUP3 GT PUSH2 0x1DF JUMPI PUSH2 0x758 PUSH1 0xFF SWAP2 PUSH2 0x73A PUSH1 0x20 SWAP5 CALLDATASIZE SWAP1 PUSH1 0x4 ADD PUSH2 0x1A8F JUMP JUMPDEST PUSH1 0x1 PUSH1 0x1 PUSH1 0xA0 SHL SUB SWAP1 SWAP2 AND PUSH1 0x0 SWAP1 DUP2 MSTORE PUSH1 0x4 DUP6 MSTORE PUSH1 0x40 SWAP1 KECCAK256 SWAP1 PUSH2 0x1AE5 JUMP JUMPDEST SLOAD AND PUSH1 0x40 MLOAD SWAP1 ISZERO ISZERO DUP2 MSTORE RETURN JUMPDEST CALLVALUE PUSH2 0x1DF JUMPI PUSH1 0x20 CALLDATASIZE PUSH1 0x3 NOT ADD SLT PUSH2 0x1DF JUMPI PUSH1 0x4 CALLDATALOAD PUSH1 0x1 PUSH1 0x1 PUSH1 0x40 SHL SUB DUP2 GT PUSH2 0x1DF JUMPI PUSH2 0x794 SWAP1 CALLDATASIZE SWAP1 PUSH1 0x4 ADD PUSH2 0x1A8F JUMP JUMPDEST CALLER PUSH1 0x0 MSTORE PUSH1 0x5 PUSH1 0x20 MSTORE PUSH2 0x7AE PUSH1 0xFF PUSH1 0x40 PUSH1 0x0 KECCAK256 SLOAD AND PUSH2 0x1E11 JUMP JUMPDEST PUSH1 0x40 MLOAD PUSH2 0x7CC PUSH2 0x280 DUP4 MLOAD SWAP3 PUSH1 0x20 DUP2 DUP2 DUP8 ADD SWAP6 PUSH2 0x270 DUP2 DUP4 DUP10 PUSH2 0x19D8 JUMP JUMPDEST PUSH1 0xFF PUSH1 0x2 PUSH1 0x40 MLOAD PUSH1 0x20 DUP2 DUP7 MLOAD PUSH2 0x7E3 DUP2 DUP4 DUP10 PUSH2 0x19D8 JUMP JUMPDEST DUP2 ADD PUSH1 0x3 DUP2 MSTORE SUB ADD SWAP1 KECCAK256 ADD SLOAD AND PUSH2 0x85E JUMPI PUSH32 0xD957379E018D73B2DA5E7482A4C88A0C4F2D197D05D0DF37674E52E2A2734652 SWAP2 PUSH1 0x2 PUSH2 0x832 PUSH1 0x20 PUSH2 0x5A4 SWAP5 PUSH1 0x40 MLOAD DUP1 SWAP4 DUP2 SWAP3 DUP8 MLOAD SWAP3 DUP4 SWAP2 PUSH2 0x19D8 JUMP JUMPDEST DUP2 ADD PUSH1 0x3 DUP2 MSTORE SUB ADD SWAP1 KECCAK256 ADD PUSH2 0x100 PUSH2 0xFF00 NOT DUP3 SLOAD AND OR SWAP1 SSTORE PUSH1 0x40 MLOAD SWAP2 DUP3 SWAP2 PUSH1 0x20 DUP4 MSTORE PUSH1 0x20 DUP4 ADD SWAP1 PUSH2 0x19FB JUMP JUMPDEST PUSH1 0x40 MLOAD PUSH3 0x461BCD PUSH1 0xE5 SHL DUP2 MSTORE PUSH1 0x20 PUSH1 0x4 DUP3 ADD MSTORE PUSH1 0x1E PUSH1 0x24 DUP3 ADD MSTORE PUSH32 0x43616E6E6F7420617263686976652061206C69766520656C656374696F6E0000 PUSH1 0x44 DUP3 ADD MSTORE PUSH1 0x64 SWAP1 REVERT JUMPDEST CALLVALUE PUSH2 0x1DF JUMPI PUSH1 0xC0 CALLDATASIZE PUSH1 0x3 NOT ADD SLT PUSH2 0x1DF JUMPI PUSH1 0x4 CALLDATALOAD PUSH1 0x1 PUSH1 0x1 PUSH1 0x40 SHL SUB DUP2 GT PUSH2 0x1DF JUMPI PUSH2 0x8D3 SWAP1 CALLDATASIZE SWAP1 PUSH1 0x4 ADD PUSH2 0x1A8F JUMP JUMPDEST PUSH1 0x24 CALLDATALOAD PUSH1 0x1 PUSH1 0x1 PUSH1 0x40 SHL SUB DUP2 GT PUSH2 0x1DF JUMPI PUSH2 0x8F2 SWAP1 CALLDATASIZE SWAP1 PUSH1 0x4 ADD PUSH2 0x1A8F JUMP JUMPDEST SWAP1 PUSH1 0x44 CALLDATALOAD PUSH1 0x1 PUSH1 0x1 PUSH1 0x40 SHL SUB DUP2 GT PUSH2 0x1DF JUMPI PUSH2 0x912 SWAP1 CALLDATASIZE SWAP1 PUSH1 0x4 ADD PUSH2 0x1B22 JUMP JUMPDEST SWAP1 PUSH1 0x64 CALLDATALOAD PUSH1 0x1 PUSH1 0x1 PUSH1 0x40 SHL SUB DUP2 GT PUSH2 0x1DF JUMPI PUSH2 0x932 SWAP1 CALLDATASIZE SWAP1 PUSH1 0x4 ADD PUSH2 0x1B22 JUMP JUMPDEST SWAP1 PUSH1 0x84 CALLDATALOAD PUSH1 0x1 PUSH1 0x1 PUSH1 0x40 SHL SUB DUP2 GT PUSH2 0x1DF JUMPI PUSH2 0x952 SWAP1 CALLDATASIZE SWAP1 PUSH1 0x4 ADD PUSH2 0x1BA0 JUMP JUMPDEST SWAP2 PUSH1 0xA4 CALLDATALOAD PUSH1 0x1 PUSH1 0x1 PUSH1 0x40 SHL SUB DUP2 GT PUSH2 0x1DF JUMPI PUSH2 0x972 SWAP1 CALLDATASIZE SWAP1 PUSH1 0x4 ADD PUSH2 0x1BA0 JUMP JUMPDEST SWAP5 CALLER PUSH1 0x0 MSTORE PUSH1 0x5 PUSH1 0x20 MSTORE PUSH2 0x98D PUSH1 0xFF PUSH1 0x40 PUSH1 0x0 KECCAK256 SLOAD AND PUSH2 0x1E11 JUMP JUMPDEST PUSH1 0x40 MLOAD PUSH2 0x9A8 DUP5 MLOAD SWAP2 PUSH1 0x20 DUP2 DUP2 DUP9 ADD SWAP5 PUSH2 0x270 DUP2 DUP4 DUP9 PUSH2 0x19D8 JUMP JUMPDEST PUSH2 0xD31 JUMPI DUP6 MLOAD DUP4 MLOAD SUB PUSH2 0xCF3 JUMPI DUP6 MLOAD DUP6 MLOAD SUB PUSH2 0xCA2 JUMPI DUP6 MLOAD DUP8 MLOAD SUB PUSH2 0xC4B JUMPI PUSH1 0x20 PUSH2 0x9E3 SWAP2 PUSH1 0x40 SWAP8 SWAP4 SWAP6 SWAP7 SWAP8 MLOAD DUP1 SWAP4 DUP2 SWAP3 DUP10 MLOAD SWAP3 DUP4 SWAP2 PUSH2 0x19D8 JUMP JUMPDEST DUP2 ADD PUSH1 0x3 DUP2 MSTORE SUB ADD SWAP1 KECCAK256 SWAP3 PUSH2 0x9F8 DUP6 DUP6 PUSH2 0x1EAA JUMP JUMPDEST PUSH2 0xA05 DUP2 PUSH1 0x1 DUP7 ADD PUSH2 0x1EAA JUMP JUMPDEST PUSH1 0x2 DUP5 ADD DUP1 SLOAD PUSH2 0xFFFF NOT AND PUSH1 0x1 OR SWAP1 SSTORE TIMESTAMP PUSH1 0x3 DUP6 ADD SSTORE PUSH1 0x0 SWAP4 PUSH1 0x4 ADD SWAP3 JUMPDEST DUP3 MLOAD DUP6 LT ISZERO PUSH2 0xBC4 JUMPI DUP4 SLOAD PUSH1 0x1 PUSH1 0x40 SHL DUP2 LT ISZERO PUSH2 0xB58 JUMPI DUP1 PUSH1 0x1 PUSH2 0xA4A SWAP3 ADD DUP7 SSTORE DUP6 PUSH2 0x1FB5 JUMP JUMPDEST POP SWAP4 PUSH2 0xA60 PUSH2 0xA59 DUP8 DUP7 PUSH2 0x1C9B JUMP JUMPDEST MLOAD DUP7 PUSH2 0x1EAA JUMP JUMPDEST PUSH2 0xA77 PUSH2 0xA6D DUP8 DUP5 PUSH2 0x1C9B JUMP JUMPDEST MLOAD PUSH1 0x1 DUP8 ADD PUSH2 0x1EAA JUMP JUMPDEST PUSH2 0xA81 DUP7 DUP10 PUSH2 0x1C9B JUMP JUMPDEST MLOAD MLOAD PUSH2 0xA8D DUP8 DUP12 PUSH2 0x1C9B JUMP JUMPDEST MLOAD MLOAD SUB PUSH2 0xB7F JUMPI DUP9 PUSH1 0x2 PUSH1 0x0 SWAP9 SWAP7 ADD SWAP8 JUMPDEST PUSH2 0xAA8 DUP9 DUP12 PUSH2 0x1C9B JUMP JUMPDEST MLOAD MLOAD DUP2 LT ISZERO PUSH2 0xB6E JUMPI PUSH2 0xAD5 DUP2 PUSH2 0xAC8 DUP11 PUSH2 0xACE DUP4 DUP16 DUP4 PUSH2 0xAC8 SWAP2 PUSH2 0x1C9B JUMP JUMPDEST MLOAD PUSH2 0x1C9B JUMP JUMPDEST MLOAD SWAP6 PUSH2 0x1C9B JUMP JUMPDEST MLOAD PUSH1 0x40 MLOAD SWAP3 PUSH2 0xAE3 DUP5 PUSH2 0x18F8 JUMP JUMPDEST DUP4 MSTORE PUSH1 0x20 DUP4 ADD SWAP1 DUP2 MSTORE PUSH1 0x40 DUP4 ADD SWAP1 PUSH1 0x0 DUP3 MSTORE DUP11 SLOAD PUSH1 0x1 PUSH1 0x40 SHL DUP2 LT ISZERO PUSH2 0xB58 JUMPI DUP1 PUSH1 0x1 PUSH2 0xB13 SWAP3 ADD DUP14 SSTORE DUP13 PUSH2 0x1FB5 JUMP JUMPDEST SWAP3 SWAP1 SWAP3 PUSH2 0xB42 JUMPI PUSH2 0xB36 PUSH1 0x2 SWAP3 PUSH2 0xB2D PUSH1 0x1 SWAP8 MLOAD DUP7 PUSH2 0x1EAA JUMP JUMPDEST MLOAD DUP7 DUP6 ADD PUSH2 0x1EAA JUMP JUMPDEST MLOAD SWAP2 ADD SSTORE ADD DUP10 SWAP1 PUSH2 0xA9E JUMP JUMPDEST PUSH4 0x4E487B71 PUSH1 0xE0 SHL PUSH1 0x0 MSTORE PUSH1 0x0 PUSH1 0x4 MSTORE PUSH1 0x24 PUSH1 0x0 REVERT JUMPDEST PUSH4 0x4E487B71 PUSH1 0xE0 SHL PUSH1 0x0 MSTORE PUSH1 0x41 PUSH1 0x4 MSTORE PUSH1 0x24 PUSH1 0x0 REVERT JUMPDEST POP SWAP5 SWAP7 POP PUSH1 0x1 SWAP1 SWAP6 ADD SWAP5 SWAP4 POP PUSH2 0xA23 JUMP JUMPDEST PUSH1 0x40 MLOAD PUSH3 0x461BCD PUSH1 0xE5 SHL DUP2 MSTORE PUSH1 0x20 PUSH1 0x4 DUP3 ADD MSTORE PUSH1 0x17 PUSH1 0x24 DUP3 ADD MSTORE PUSH32 0x43616E6469646174652064617461206D69736D61746368000000000000000000 PUSH1 0x44 DUP3 ADD MSTORE PUSH1 0x64 SWAP1 REVERT JUMPDEST DUP6 DUP3 PUSH1 0x2 SLOAD PUSH1 0x1 PUSH1 0x40 SHL DUP2 LT ISZERO PUSH2 0xB58 JUMPI DUP1 PUSH1 0x1 PUSH2 0xBE5 SWAP3 ADD PUSH1 0x2 SSTORE PUSH2 0x1872 JUMP JUMPDEST SWAP3 SWAP1 SWAP3 PUSH2 0xB42 JUMPI PUSH2 0xC40 PUSH2 0xC32 SWAP3 PUSH2 0xC1E DUP4 PUSH32 0x8FA439CF7090296B73EB06DA904A8B179D6E9A0074F0BB318209E3B961CE2D54 SWAP7 PUSH2 0x1EAA JUMP JUMPDEST PUSH1 0x40 MLOAD SWAP4 DUP5 SWAP4 PUSH1 0x60 DUP6 MSTORE PUSH1 0x60 DUP6 ADD SWAP1 PUSH2 0x19FB JUMP JUMPDEST SWAP1 DUP4 DUP3 SUB PUSH1 0x20 DUP6 ADD MSTORE PUSH2 0x19FB JUMP JUMPDEST CALLER PUSH1 0x40 DUP4 ADD MSTORE SUB SWAP1 LOG1 STOP JUMPDEST PUSH1 0x40 MLOAD PUSH3 0x461BCD PUSH1 0xE5 SHL DUP2 MSTORE PUSH1 0x20 PUSH1 0x4 DUP3 ADD MSTORE PUSH1 0x29 PUSH1 0x24 DUP3 ADD MSTORE PUSH32 0x506F736974696F6E20616E642063616E646964617465206E616D652064617461 PUSH1 0x44 DUP3 ADD MSTORE PUSH9 0x40DAD2E6DAC2E8C6D PUSH1 0xBB SHL PUSH1 0x64 DUP3 ADD MSTORE PUSH1 0x84 SWAP1 REVERT JUMPDEST PUSH1 0x40 MLOAD PUSH3 0x461BCD PUSH1 0xE5 SHL DUP2 MSTORE PUSH1 0x20 PUSH1 0x4 DUP3 ADD MSTORE PUSH1 0x24 DUP1 DUP3 ADD MSTORE PUSH32 0x506F736974696F6E20616E642063616E6469646174652064617461206D69736D PUSH1 0x44 DUP3 ADD MSTORE PUSH4 0xC2E8C6D PUSH1 0xE3 SHL PUSH1 0x64 DUP3 ADD MSTORE PUSH1 0x84 SWAP1 REVERT JUMPDEST PUSH1 0x40 MLOAD PUSH3 0x461BCD PUSH1 0xE5 SHL DUP2 MSTORE PUSH1 0x20 PUSH1 0x4 DUP3 ADD MSTORE PUSH1 0x16 PUSH1 0x24 DUP3 ADD MSTORE PUSH22 0xA0DEE6D2E8D2DEDC40C8C2E8C240DAD2E6DAC2E8C6D PUSH1 0x53 SHL PUSH1 0x44 DUP3 ADD MSTORE PUSH1 0x64 SWAP1 REVERT JUMPDEST PUSH1 0x40 MLOAD PUSH3 0x461BCD PUSH1 0xE5 SHL DUP2 MSTORE PUSH1 0x20 PUSH1 0x4 DUP3 ADD MSTORE PUSH1 0x17 PUSH1 0x24 DUP3 ADD MSTORE PUSH32 0x456C656374696F6E20616C726561647920657869737473000000000000000000 PUSH1 0x44 DUP3 ADD MSTORE PUSH1 0x64 SWAP1 REVERT JUMPDEST CALLVALUE PUSH2 0x1DF JUMPI PUSH1 0x40 CALLDATASIZE PUSH1 0x3 NOT ADD SLT PUSH2 0x1DF JUMPI PUSH1 0x4 CALLDATALOAD PUSH1 0x1 PUSH1 0x1 PUSH1 0x40 SHL SUB DUP2 GT PUSH2 0x1DF JUMPI PUSH2 0xDA6 SWAP1 CALLDATASIZE SWAP1 PUSH1 0x4 ADD PUSH2 0x1A8F JUMP JUMPDEST PUSH1 0x24 CALLDATALOAD DUP1 ISZERO ISZERO DUP1 SWAP2 SUB PUSH2 0x1DF JUMPI PUSH32 0x7E64DDEFC328088476333AE345C8484A8102E01DDFEFFC0AB12120D413575B2B SWAP2 PUSH2 0xE6C SWAP2 CALLER PUSH1 0x0 MSTORE PUSH1 0x5 PUSH1 0x20 MSTORE PUSH2 0xDF3 PUSH1 0xFF PUSH1 0x40 PUSH1 0x0 KECCAK256 SLOAD AND PUSH2 0x1E11 JUMP JUMPDEST PUSH1 0x2 PUSH2 0xE40 PUSH1 0x20 PUSH1 0x40 MLOAD PUSH2 0xE17 PUSH2 0x280 DUP8 MLOAD SWAP3 DUP5 DUP2 DUP2 DUP12 ADD SWAP6 PUSH2 0x270 DUP2 DUP4 DUP10 PUSH2 0x19D8 JUMP JUMPDEST PUSH2 0xE2F PUSH1 0xFF DUP6 PUSH1 0x40 MLOAD DUP6 DUP2 DUP12 MLOAD PUSH2 0x2CA DUP2 DUP4 DUP11 PUSH2 0x19D8 JUMP JUMPDEST PUSH1 0x40 MLOAD DUP1 SWAP4 DUP2 SWAP3 DUP9 MLOAD SWAP3 DUP4 SWAP2 PUSH2 0x19D8 JUMP JUMPDEST DUP2 ADD PUSH1 0x3 DUP2 MSTORE SUB ADD SWAP1 KECCAK256 ADD PUSH1 0xFF NOT DUP2 SLOAD AND PUSH1 0xFF DUP4 AND OR SWAP1 SSTORE PUSH1 0x40 MLOAD SWAP3 DUP4 SWAP3 PUSH1 0x40 DUP5 MSTORE PUSH1 0x40 DUP5 ADD SWAP1 PUSH2 0x19FB JUMP JUMPDEST SWAP1 PUSH1 0x20 DUP4 ADD MSTORE SUB SWAP1 LOG1 STOP JUMPDEST CALLVALUE PUSH2 0x1DF JUMPI PUSH1 0x0 CALLDATASIZE PUSH1 0x3 NOT ADD SLT PUSH2 0x1DF JUMPI PUSH1 0x0 SLOAD PUSH1 0x40 MLOAD PUSH1 0x1 PUSH1 0x1 PUSH1 0xA0 SHL SUB SWAP1 SWAP2 AND DUP2 MSTORE PUSH1 0x20 SWAP1 RETURN JUMPDEST CALLVALUE PUSH2 0x1DF JUMPI PUSH1 0x20 CALLDATASIZE PUSH1 0x3 NOT ADD SLT PUSH2 0x1DF JUMPI PUSH2 0xEB9 PUSH2 0x1A79 JUMP JUMPDEST PUSH2 0xECE PUSH1 0x1 DUP1 PUSH1 0xA0 SHL SUB PUSH1 0x0 SLOAD AND CALLER EQ PUSH2 0x1CAF JUMP JUMPDEST PUSH1 0x1 PUSH1 0x1 PUSH1 0xA0 SHL SUB DUP2 AND SWAP1 PUSH2 0xEE4 DUP3 ISZERO ISZERO PUSH2 0x1D51 JUMP JUMPDEST DUP2 PUSH1 0x0 MSTORE PUSH1 0x5 PUSH1 0x20 MSTORE PUSH1 0xFF PUSH1 0x40 PUSH1 0x0 KECCAK256 SLOAD AND PUSH2 0xF48 JUMPI DUP2 PUSH2 0xF3F PUSH1 0x20 SWAP3 PUSH32 0x44D6D25963F097AD14F29F06854A01F575648A1EF82F30E562CCD3889717E339 SWAP5 PUSH1 0x0 MSTORE PUSH1 0x5 DUP5 MSTORE PUSH1 0x40 PUSH1 0x0 KECCAK256 PUSH1 0x1 PUSH1 0xFF NOT DUP3 SLOAD AND OR SWAP1 SSTORE PUSH2 0x1D8F JUMP JUMPDEST PUSH1 0x40 MLOAD SWAP1 DUP2 MSTORE LOG1 STOP JUMPDEST PUSH1 0x40 MLOAD PUSH3 0x461BCD PUSH1 0xE5 SHL DUP2 MSTORE PUSH1 0x20 PUSH1 0x4 DUP3 ADD MSTORE PUSH1 0x10 PUSH1 0x24 DUP3 ADD MSTORE PUSH16 0x20B63932B0B23C9030B71030B236B4B7 PUSH1 0x81 SHL PUSH1 0x44 DUP3 ADD MSTORE PUSH1 0x64 SWAP1 REVERT JUMPDEST CALLVALUE PUSH2 0x1DF JUMPI PUSH1 0x20 CALLDATASIZE PUSH1 0x3 NOT ADD SLT PUSH2 0x1DF JUMPI PUSH1 0x4 CALLDATALOAD PUSH1 0x1 PUSH1 0x1 PUSH1 0x40 SHL SUB DUP2 GT PUSH2 0x1DF JUMPI PUSH2 0xFCB PUSH1 0x20 PUSH2 0xFB8 PUSH2 0x100F SWAP4 CALLDATASIZE SWAP1 PUSH1 0x4 ADD PUSH2 0x1A8F JUMP JUMPDEST DUP2 PUSH1 0x40 MLOAD SWAP4 DUP3 DUP6 DUP1 SWAP5 MLOAD SWAP4 DUP5 SWAP3 ADD PUSH2 0x19D8 JUMP JUMPDEST DUP2 ADD PUSH1 0x3 DUP2 MSTORE SUB ADD SWAP1 KECCAK256 PUSH2 0xFDE DUP2 PUSH2 0x1934 JUMP JUMPDEST SWAP1 PUSH2 0xFEB PUSH1 0x1 DUP3 ADD PUSH2 0x1934 JUMP JUMPDEST PUSH1 0xFF PUSH2 0x101D PUSH1 0x3 PUSH1 0x2 DUP6 ADD SLOAD SWAP5 ADD SLOAD SWAP3 PUSH1 0x40 MLOAD SWAP7 DUP8 SWAP7 PUSH1 0xA0 DUP9 MSTORE PUSH1 0xA0 DUP9 ADD SWAP1 PUSH2 0x19FB JUMP JUMPDEST SWAP1 DUP7 DUP3 SUB PUSH1 0x20 DUP9 ADD MSTORE PUSH2 0x19FB JUMP JUMPDEST SWAP3 DUP2 DUP2 AND ISZERO ISZERO PUSH1 0x40 DUP7 ADD MSTORE PUSH1 0x8 SHR AND ISZERO ISZERO PUSH1 0x60 DUP5 ADD MSTORE PUSH1 0x80 DUP4 ADD MSTORE SUB SWAP1 RETURN JUMPDEST CALLVALUE PUSH2 0x1DF JUMPI PUSH1 0x20 CALLDATASIZE PUSH1 0x3 NOT ADD SLT PUSH2 0x1DF JUMPI PUSH1 0x4 CALLDATALOAD PUSH1 0x1 PUSH1 0x1 PUSH1 0x40 SHL SUB DUP2 GT PUSH2 0x1DF JUMPI PUSH1 0x20 PUSH2 0x1071 PUSH2 0x10A0 SWAP3 CALLDATASIZE SWAP1 PUSH1 0x4 ADD PUSH2 0x1A8F JUMP JUMPDEST PUSH1 0x40 MLOAD SWAP1 PUSH2 0x108F PUSH2 0x280 DUP3 MLOAD SWAP4 DUP6 DUP2 DUP2 DUP7 ADD SWAP7 PUSH2 0x270 DUP2 DUP4 DUP11 PUSH2 0x19D8 JUMP JUMPDEST PUSH1 0x40 MLOAD SWAP4 DUP5 SWAP3 DUP4 SWAP3 MLOAD SWAP3 DUP4 SWAP2 PUSH2 0x19D8 JUMP JUMPDEST DUP2 ADD PUSH1 0x3 DUP2 MSTORE SUB ADD SWAP1 KECCAK256 PUSH1 0x2 DUP2 ADD SLOAD SWAP1 PUSH1 0x3 DUP2 ADD SLOAD PUSH1 0x4 DUP3 ADD SWAP1 PUSH2 0x10CF PUSH1 0x1 PUSH2 0x10C8 DUP6 PUSH2 0x1934 JUMP JUMPDEST SWAP5 ADD PUSH2 0x1934 JUMP JUMPDEST SWAP1 DUP3 SLOAD SWAP2 PUSH2 0x10DC DUP4 PUSH2 0x1B0B JUMP JUMPDEST SWAP3 PUSH2 0x10EA PUSH1 0x40 MLOAD SWAP5 DUP6 PUSH2 0x1913 JUMP JUMPDEST DUP1 DUP5 MSTORE PUSH1 0x20 DUP5 ADD DUP1 SWAP6 PUSH1 0x0 MSTORE PUSH1 0x20 PUSH1 0x0 KECCAK256 PUSH1 0x0 SWAP2 JUMPDEST DUP4 DUP4 LT PUSH2 0x124D JUMPI POP POP POP POP PUSH2 0x1133 PUSH1 0xFF SWAP2 PUSH2 0x1125 PUSH1 0x40 MLOAD SWAP8 PUSH1 0xC0 DUP10 MSTORE PUSH1 0xC0 DUP10 ADD SWAP1 PUSH2 0x19FB JUMP JUMPDEST SWAP1 DUP8 DUP3 SUB PUSH1 0x20 DUP10 ADD MSTORE PUSH2 0x19FB JUMP JUMPDEST SWAP6 DUP2 DUP2 AND ISZERO ISZERO PUSH1 0x40 DUP8 ADD MSTORE PUSH1 0x8 SHR AND ISZERO ISZERO PUSH1 0x60 DUP6 ADD MSTORE PUSH1 0x80 DUP5 ADD MSTORE DUP3 DUP5 SUB PUSH1 0xA0 DUP5 ADD MSTORE MLOAD DUP1 DUP5 MSTORE PUSH1 0x20 DUP5 ADD SWAP1 PUSH1 0x20 DUP2 PUSH1 0x5 SHL DUP7 ADD ADD SWAP3 SWAP2 PUSH1 0x0 SWAP1 JUMPDEST DUP3 DUP3 LT PUSH2 0x117B JUMPI DUP6 DUP6 SUB DUP7 RETURN JUMPDEST SWAP1 SWAP2 SWAP3 SWAP4 PUSH1 0x1F NOT DUP8 DUP3 SUB ADD DUP3 MSTORE DUP5 MLOAD PUSH1 0x40 PUSH2 0x11B4 PUSH2 0x11A2 DUP4 MLOAD PUSH1 0x60 DUP7 MSTORE PUSH1 0x60 DUP7 ADD SWAP1 PUSH2 0x19FB JUMP JUMPDEST PUSH1 0x20 DUP5 ADD MLOAD DUP6 DUP3 SUB PUSH1 0x20 DUP8 ADD MSTORE PUSH2 0x19FB JUMP JUMPDEST SWAP2 ADD MLOAD SWAP2 PUSH1 0x40 DUP2 DUP4 SUB SWAP2 ADD MSTORE DUP2 MLOAD DUP1 DUP3 MSTORE PUSH1 0x20 DUP3 ADD SWAP1 PUSH1 0x20 DUP1 DUP3 PUSH1 0x5 SHL DUP6 ADD ADD SWAP5 ADD SWAP3 PUSH1 0x0 JUMPDEST DUP3 DUP2 LT PUSH2 0x11FA JUMPI POP POP POP POP POP PUSH1 0x20 DUP1 PUSH1 0x1 SWAP3 SWAP7 ADD SWAP3 ADD SWAP3 ADD SWAP1 SWAP3 SWAP2 PUSH2 0x116E JUMP JUMPDEST SWAP1 SWAP2 SWAP3 SWAP4 SWAP5 PUSH1 0x20 DUP1 PUSH1 0x1 SWAP3 PUSH1 0x1F NOT DUP7 DUP3 SUB ADD DUP9 MSTORE DUP9 MLOAD SWAP1 PUSH1 0x40 DUP1 PUSH2 0x123A PUSH2 0x122A DUP6 MLOAD PUSH1 0x60 DUP7 MSTORE PUSH1 0x60 DUP7 ADD SWAP1 PUSH2 0x19FB JUMP JUMPDEST DUP7 DUP7 ADD MLOAD DUP6 DUP3 SUB DUP9 DUP8 ADD MSTORE PUSH2 0x19FB JUMP JUMPDEST SWAP4 ADD MLOAD SWAP2 ADD MSTORE SWAP8 ADD SWAP6 ADD SWAP4 SWAP3 SWAP2 ADD PUSH2 0x11DA JUMP JUMPDEST PUSH1 0x40 MLOAD PUSH2 0x1259 DUP2 PUSH2 0x18F8 JUMP JUMPDEST PUSH2 0x1262 DUP4 PUSH2 0x1934 JUMP JUMPDEST DUP2 MSTORE PUSH2 0x1270 PUSH1 0x1 DUP5 ADD PUSH2 0x1934 JUMP JUMPDEST PUSH1 0x20 DUP3 ADD MSTORE PUSH1 0x2 DUP4 ADD DUP1 SLOAD PUSH2 0x1284 DUP2 PUSH2 0x1B0B JUMP JUMPDEST SWAP2 PUSH2 0x1292 PUSH1 0x40 MLOAD SWAP4 DUP5 PUSH2 0x1913 JUMP JUMPDEST DUP2 DUP4 MSTORE PUSH1 0x20 DUP4 ADD SWAP1 PUSH1 0x0 MSTORE PUSH1 0x20 PUSH1 0x0 KECCAK256 SWAP1 PUSH1 0x0 SWAP1 JUMPDEST DUP4 DUP3 LT PUSH2 0x12CE JUMPI POP POP POP POP PUSH1 0x1 SWAP3 DUP3 PUSH1 0x20 SWAP3 PUSH1 0x40 PUSH1 0x3 SWAP6 ADD MSTORE DUP2 MSTORE ADD SWAP3 ADD SWAP3 ADD SWAP2 SWAP1 PUSH2 0x10FF JUMP JUMPDEST PUSH1 0x3 PUSH1 0x20 PUSH1 0x1 SWAP3 PUSH1 0x40 MLOAD PUSH2 0x12E1 DUP2 PUSH2 0x18F8 JUMP JUMPDEST PUSH2 0x12EA DUP8 PUSH2 0x1934 JUMP JUMPDEST DUP2 MSTORE PUSH2 0x12F7 DUP6 DUP9 ADD PUSH2 0x1934 JUMP JUMPDEST DUP4 DUP3 ADD MSTORE PUSH1 0x2 DUP8 ADD SLOAD PUSH1 0x40 DUP3 ADD MSTORE DUP2 MSTORE ADD SWAP4 ADD SWAP2 ADD SWAP1 SWAP2 PUSH2 0x12A7 JUMP JUMPDEST CALLVALUE PUSH2 0x1DF JUMPI PUSH1 0x40 CALLDATASIZE PUSH1 0x3 NOT ADD SLT PUSH2 0x1DF JUMPI PUSH1 0x4 CALLDATALOAD PUSH1 0x1 PUSH1 0x1 PUSH1 0x40 SHL SUB DUP2 GT PUSH2 0x1DF JUMPI PUSH2 0x1343 SWAP1 CALLDATASIZE SWAP1 PUSH1 0x4 ADD PUSH2 0x1A8F JUMP JUMPDEST PUSH1 0x24 CALLDATALOAD PUSH1 0x1 PUSH1 0x1 PUSH1 0xA0 SHL SUB DUP2 AND SWAP2 SWAP1 DUP3 SWAP1 SUB PUSH2 0x1DF JUMPI PUSH2 0x758 PUSH1 0xFF SWAP2 PUSH1 0x20 SWAP4 PUSH1 0x0 MSTORE PUSH1 0x4 DUP5 MSTORE PUSH1 0x40 PUSH1 0x0 KECCAK256 SWAP1 PUSH2 0x1AE5 JUMP JUMPDEST CALLVALUE PUSH2 0x1DF JUMPI PUSH1 0x0 CALLDATASIZE PUSH1 0x3 NOT ADD SLT PUSH2 0x1DF JUMPI PUSH1 0x40 MLOAD DUP1 PUSH1 0x20 PUSH1 0x1 SLOAD SWAP3 DUP4 DUP2 MSTORE ADD DUP1 SWAP3 PUSH1 0x1 PUSH1 0x0 MSTORE PUSH32 0xB10E2D527612073B26EECDFD717E6A320CF44B4AFAC2B0732D9FCBE2B7FA0CF6 SWAP1 PUSH1 0x0 JUMPDEST DUP2 DUP2 LT PUSH2 0x1421 JUMPI POP POP POP DUP2 PUSH2 0x13D5 SWAP2 SUB DUP3 PUSH2 0x1913 JUMP JUMPDEST PUSH1 0x40 MLOAD SWAP2 DUP3 SWAP2 PUSH1 0x20 DUP4 ADD SWAP1 PUSH1 0x20 DUP5 MSTORE MLOAD DUP1 SWAP2 MSTORE PUSH1 0x40 DUP4 ADD SWAP2 SWAP1 PUSH1 0x0 JUMPDEST DUP2 DUP2 LT PUSH2 0x13FF JUMPI POP POP POP SUB SWAP1 RETURN JUMPDEST DUP3 MLOAD PUSH1 0x1 PUSH1 0x1 PUSH1 0xA0 SHL SUB AND DUP5 MSTORE DUP6 SWAP5 POP PUSH1 0x20 SWAP4 DUP5 ADD SWAP4 SWAP1 SWAP3 ADD SWAP2 PUSH1 0x1 ADD PUSH2 0x13F1 JUMP JUMPDEST DUP3 SLOAD PUSH1 0x1 PUSH1 0x1 PUSH1 0xA0 SHL SUB AND DUP5 MSTORE PUSH1 0x20 SWAP1 SWAP4 ADD SWAP3 PUSH1 0x1 SWAP3 DUP4 ADD SWAP3 ADD PUSH2 0x13BF JUMP JUMPDEST CALLVALUE PUSH2 0x1DF JUMPI PUSH1 0x20 CALLDATASIZE PUSH1 0x3 NOT ADD SLT PUSH2 0x1DF JUMPI PUSH1 0x1 PUSH1 0x1 PUSH1 0xA0 SHL SUB PUSH2 0x1461 PUSH2 0x1A79 JUMP JUMPDEST AND PUSH1 0x0 MSTORE PUSH1 0x5 PUSH1 0x20 MSTORE PUSH1 0x20 PUSH1 0xFF PUSH1 0x40 PUSH1 0x0 KECCAK256 SLOAD AND PUSH1 0x40 MLOAD SWAP1 ISZERO ISZERO DUP2 MSTORE RETURN JUMPDEST CALLVALUE PUSH2 0x1DF JUMPI PUSH1 0x20 CALLDATASIZE PUSH1 0x3 NOT ADD SLT PUSH2 0x1DF JUMPI PUSH2 0x1498 PUSH2 0x1A79 JUMP JUMPDEST PUSH1 0x0 SLOAD PUSH1 0x1 PUSH1 0x1 PUSH1 0xA0 SHL SUB AND SWAP1 PUSH2 0x14B0 CALLER DUP4 EQ PUSH2 0x1CAF JUMP JUMPDEST PUSH1 0x1 PUSH1 0x1 PUSH1 0xA0 SHL SUB AND SWAP1 DUP2 EQ PUSH2 0x1661 JUMPI DUP1 PUSH1 0x0 MSTORE PUSH1 0x5 PUSH1 0x20 MSTORE PUSH1 0xFF PUSH1 0x40 PUSH1 0x0 KECCAK256 SLOAD AND ISZERO PUSH2 0x162D JUMPI PUSH1 0x0 DUP2 DUP2 MSTORE PUSH1 0x5 PUSH1 0x20 MSTORE PUSH1 0x40 DUP2 KECCAK256 DUP1 SLOAD PUSH1 0xFF NOT AND SWAP1 SSTORE JUMPDEST PUSH1 0x1 SLOAD SWAP1 DUP2 DUP2 LT ISZERO PUSH2 0x1602 JUMPI DUP3 PUSH2 0x1504 DUP3 PUSH2 0x18A3 JUMP JUMPDEST SWAP1 SLOAD PUSH1 0x3 SWAP2 SWAP1 SWAP2 SHL SHR PUSH1 0x1 PUSH1 0x1 PUSH1 0xA0 SHL SUB AND EQ PUSH2 0x1525 JUMPI PUSH1 0x1 SWAP2 POP ADD PUSH2 0x14EE JUMP JUMPDEST PUSH1 0x0 NOT DUP3 ADD SWAP2 DUP3 GT PUSH2 0x15EC JUMPI PUSH2 0x1558 PUSH2 0x1540 PUSH2 0x157C SWAP4 PUSH2 0x18A3 JUMP JUMPDEST SWAP1 SLOAD PUSH1 0x3 SWAP2 SWAP1 SWAP2 SHL SHR PUSH1 0x1 PUSH1 0x1 PUSH1 0xA0 SHL SUB AND SWAP2 PUSH2 0x18A3 JUMP JUMPDEST DUP2 SLOAD PUSH1 0x1 PUSH1 0x1 PUSH1 0xA0 SHL SUB SWAP4 DUP5 AND PUSH1 0x3 SWAP3 SWAP1 SWAP3 SHL SWAP2 DUP3 SHL SWAP4 SWAP1 SWAP2 SHL NOT AND SWAP2 SWAP1 SWAP2 OR SWAP1 SSTORE JUMP JUMPDEST PUSH1 0x1 SLOAD DUP1 ISZERO PUSH2 0x15D6 JUMPI PUSH32 0xA3B62BC36326052D97EA62D63C3D60308ED4C3EA8AC079DD8499F1E9C4F80C0F SWAP2 PUSH1 0x20 SWAP2 PUSH1 0x0 NOT ADD PUSH2 0x15B7 DUP2 PUSH2 0x18A3 JUMP JUMPDEST DUP2 SLOAD SWAP1 PUSH1 0x1 DUP1 PUSH1 0xA0 SHL SUB SWAP1 PUSH1 0x3 SHL SHL NOT AND SWAP1 SSTORE PUSH1 0x1 SSTORE PUSH1 0x40 MLOAD SWAP1 DUP2 MSTORE LOG1 STOP JUMPDEST PUSH4 0x4E487B71 PUSH1 0xE0 SHL PUSH1 0x0 MSTORE PUSH1 0x31 PUSH1 0x4 MSTORE PUSH1 0x24 PUSH1 0x0 REVERT JUMPDEST PUSH4 0x4E487B71 PUSH1 0xE0 SHL PUSH1 0x0 MSTORE PUSH1 0x11 PUSH1 0x4 MSTORE PUSH1 0x24 PUSH1 0x0 REVERT JUMPDEST POP POP PUSH1 0x20 PUSH32 0xA3B62BC36326052D97EA62D63C3D60308ED4C3EA8AC079DD8499F1E9C4F80C0F SWAP2 PUSH2 0xF3F JUMP JUMPDEST PUSH1 0x40 MLOAD PUSH3 0x461BCD PUSH1 0xE5 SHL DUP2 MSTORE PUSH1 0x20 PUSH1 0x4 DUP3 ADD MSTORE PUSH1 0xC PUSH1 0x24 DUP3 ADD MSTORE PUSH12 0x2737BA1030B71030B236B4B7 PUSH1 0xA1 SHL PUSH1 0x44 DUP3 ADD MSTORE PUSH1 0x64 SWAP1 REVERT JUMPDEST PUSH1 0x40 MLOAD PUSH3 0x461BCD PUSH1 0xE5 SHL DUP2 MSTORE PUSH1 0x20 PUSH1 0x4 DUP3 ADD MSTORE PUSH1 0x1E PUSH1 0x24 DUP3 ADD MSTORE PUSH32 0x43616E6E6F742072656D6F7665206F776E65722066726F6D2061646D696E0000 PUSH1 0x44 DUP3 ADD MSTORE PUSH1 0x64 SWAP1 REVERT JUMPDEST CALLVALUE PUSH2 0x1DF JUMPI PUSH1 0x20 CALLDATASIZE PUSH1 0x3 NOT ADD SLT PUSH2 0x1DF JUMPI PUSH1 0x4 CALLDATALOAD PUSH1 0x1 SLOAD DUP2 LT ISZERO PUSH2 0x1DF JUMPI PUSH2 0x16CF PUSH1 0x20 SWAP2 PUSH2 0x18A3 JUMP JUMPDEST SWAP1 SLOAD PUSH1 0x40 MLOAD PUSH1 0x3 SWAP3 SWAP1 SWAP3 SHL SHR PUSH1 0x1 PUSH1 0x1 PUSH1 0xA0 SHL SUB AND DUP2 MSTORE RETURN JUMPDEST CALLVALUE PUSH2 0x1DF JUMPI PUSH1 0x0 CALLDATASIZE PUSH1 0x3 NOT ADD SLT PUSH2 0x1DF JUMPI PUSH1 0x0 DUP1 PUSH1 0x2 SLOAD SWAP1 JUMPDEST DUP2 DUP2 LT PUSH2 0x17E5 JUMPI POP PUSH2 0x1712 DUP3 PUSH2 0x1B0B JUMP JUMPDEST SWAP2 PUSH2 0x1720 PUSH1 0x40 MLOAD SWAP4 DUP5 PUSH2 0x1913 JUMP JUMPDEST DUP1 DUP4 MSTORE PUSH2 0x172F PUSH1 0x1F NOT SWAP2 PUSH2 0x1B0B JUMP JUMPDEST ADD PUSH1 0x0 JUMPDEST DUP2 DUP2 LT PUSH2 0x17D4 JUMPI POP POP PUSH1 0x0 DUP1 JUMPDEST DUP3 DUP2 LT PUSH2 0x175D JUMPI PUSH1 0x40 MLOAD PUSH1 0x20 DUP1 DUP3 MSTORE DUP2 SWAP1 PUSH2 0x6D8 SWAP1 DUP3 ADD DUP8 PUSH2 0x1A20 JUMP JUMPDEST PUSH1 0xFF PUSH1 0x2 PUSH2 0x177C PUSH1 0x20 PUSH2 0x176F DUP6 PUSH2 0x1872 JUMP JUMPDEST POP PUSH1 0x40 MLOAD SWAP3 DUP4 DUP1 SWAP3 PUSH2 0x1C1E JUMP JUMPDEST PUSH1 0x3 DUP2 MSTORE SUB ADD SWAP1 KECCAK256 ADD SLOAD PUSH1 0x8 SHR AND ISZERO PUSH2 0x1798 JUMPI JUMPDEST PUSH1 0x1 ADD PUSH2 0x1740 JUMP JUMPDEST SWAP1 PUSH2 0x17CC PUSH1 0x1 SWAP2 PUSH2 0x17B1 PUSH2 0x17AB DUP6 PUSH2 0x1872 JUMP JUMPDEST POP PUSH2 0x1934 JUMP JUMPDEST PUSH2 0x17BB DUP3 DUP9 PUSH2 0x1C9B JUMP JUMPDEST MSTORE PUSH2 0x17C6 DUP2 DUP8 PUSH2 0x1C9B JUMP JUMPDEST POP PUSH2 0x1C8C JUMP JUMPDEST SWAP2 SWAP1 POP PUSH2 0x1790 JUMP JUMPDEST DUP1 PUSH1 0x60 PUSH1 0x20 DUP1 SWAP4 DUP8 ADD ADD MSTORE ADD PUSH2 0x1733 JUMP JUMPDEST PUSH1 0xFF PUSH1 0x2 PUSH2 0x17F7 PUSH1 0x20 PUSH2 0x176F DUP6 PUSH2 0x1872 JUMP JUMPDEST PUSH1 0x3 DUP2 MSTORE SUB ADD SWAP1 KECCAK256 ADD SLOAD PUSH1 0x8 SHR AND ISZERO PUSH2 0x1813 JUMPI JUMPDEST PUSH1 0x1 ADD PUSH2 0x1701 JUMP JUMPDEST SWAP2 PUSH2 0x181F PUSH1 0x1 SWAP2 PUSH2 0x1C8C JUMP JUMPDEST SWAP3 SWAP1 POP PUSH2 0x180B JUMP JUMPDEST CALLVALUE PUSH2 0x1DF JUMPI PUSH1 0x20 CALLDATASIZE PUSH1 0x3 NOT ADD SLT PUSH2 0x1DF JUMPI PUSH1 0x4 CALLDATALOAD PUSH1 0x2 SLOAD DUP2 LT ISZERO PUSH2 0x1DF JUMPI PUSH2 0x184E SWAP1 PUSH2 0x1872 JUMP JUMPDEST PUSH2 0xB42 JUMPI PUSH2 0x185E PUSH2 0x6D8 SWAP2 PUSH2 0x1934 JUMP JUMPDEST PUSH1 0x40 MLOAD SWAP2 DUP3 SWAP2 PUSH1 0x20 DUP4 MSTORE PUSH1 0x20 DUP4 ADD SWAP1 PUSH2 0x19FB JUMP JUMPDEST PUSH1 0x2 SLOAD DUP2 LT ISZERO PUSH2 0x188D JUMPI PUSH1 0x2 PUSH1 0x0 MSTORE PUSH1 0x20 PUSH1 0x0 KECCAK256 ADD SWAP1 PUSH1 0x0 SWAP1 JUMP JUMPDEST PUSH4 0x4E487B71 PUSH1 0xE0 SHL PUSH1 0x0 MSTORE PUSH1 0x32 PUSH1 0x4 MSTORE PUSH1 0x24 PUSH1 0x0 REVERT JUMPDEST PUSH1 0x1 SLOAD DUP2 LT ISZERO PUSH2 0x188D JUMPI PUSH1 0x1 PUSH1 0x0 MSTORE PUSH1 0x20 PUSH1 0x0 KECCAK256 ADD SWAP1 PUSH1 0x0 SWAP1 JUMP JUMPDEST SWAP1 PUSH1 0x1 DUP3 DUP2 SHR SWAP3 AND DUP1 ISZERO PUSH2 0x18EE JUMPI JUMPDEST PUSH1 0x20 DUP4 LT EQ PUSH2 0x18D8 JUMPI JUMP JUMPDEST PUSH4 0x4E487B71 PUSH1 0xE0 SHL PUSH1 0x0 MSTORE PUSH1 0x22 PUSH1 0x4 MSTORE PUSH1 0x24 PUSH1 0x0 REVERT JUMPDEST SWAP2 PUSH1 0x7F AND SWAP2 PUSH2 0x18CD JUMP JUMPDEST PUSH1 0x60 DUP2 ADD SWAP1 DUP2 LT PUSH1 0x1 PUSH1 0x1 PUSH1 0x40 SHL SUB DUP3 GT OR PUSH2 0xB58 JUMPI PUSH1 0x40 MSTORE JUMP JUMPDEST SWAP1 PUSH1 0x1F DUP1 NOT SWAP2 ADD AND DUP2 ADD SWAP1 DUP2 LT PUSH1 0x1 PUSH1 0x1 PUSH1 0x40 SHL SUB DUP3 GT OR PUSH2 0xB58 JUMPI PUSH1 0x40 MSTORE JUMP JUMPDEST SWAP1 PUSH1 0x40 MLOAD SWAP2 DUP3 PUSH1 0x0 DUP3 SLOAD SWAP3 PUSH2 0x1948 DUP5 PUSH2 0x18BE JUMP JUMPDEST DUP1 DUP5 MSTORE SWAP4 PUSH1 0x1 DUP2 AND SWAP1 DUP2 ISZERO PUSH2 0x19B6 JUMPI POP PUSH1 0x1 EQ PUSH2 0x196F JUMPI JUMPDEST POP PUSH2 0x196D SWAP3 POP SUB DUP4 PUSH2 0x1913 JUMP JUMPDEST JUMP JUMPDEST SWAP1 POP PUSH1 0x0 SWAP3 SWAP2 SWAP3 MSTORE PUSH1 0x20 PUSH1 0x0 KECCAK256 SWAP1 PUSH1 0x0 SWAP2 JUMPDEST DUP2 DUP4 LT PUSH2 0x199A JUMPI POP POP SWAP1 PUSH1 0x20 PUSH2 0x196D SWAP3 DUP3 ADD ADD CODESIZE PUSH2 0x1960 JUMP JUMPDEST PUSH1 0x20 SWAP2 SWAP4 POP DUP1 PUSH1 0x1 SWAP2 SLOAD DUP4 DUP6 DUP10 ADD ADD MSTORE ADD SWAP2 ADD SWAP1 SWAP2 DUP5 SWAP3 PUSH2 0x1981 JUMP JUMPDEST SWAP1 POP PUSH1 0x20 SWAP3 POP PUSH2 0x196D SWAP5 SWAP2 POP PUSH1 0xFF NOT AND DUP3 DUP5 ADD MSTORE ISZERO ISZERO PUSH1 0x5 SHL DUP3 ADD ADD CODESIZE PUSH2 0x1960 JUMP JUMPDEST PUSH1 0x0 JUMPDEST DUP4 DUP2 LT PUSH2 0x19EB JUMPI POP POP PUSH1 0x0 SWAP2 ADD MSTORE JUMP JUMPDEST DUP2 DUP2 ADD MLOAD DUP4 DUP3 ADD MSTORE PUSH1 0x20 ADD PUSH2 0x19DB JUMP JUMPDEST SWAP1 PUSH1 0x20 SWAP2 PUSH2 0x1A14 DUP2 MLOAD DUP1 SWAP3 DUP2 DUP6 MSTORE DUP6 DUP1 DUP7 ADD SWAP2 ADD PUSH2 0x19D8 JUMP JUMPDEST PUSH1 0x1F ADD PUSH1 0x1F NOT AND ADD ADD SWAP1 JUMP JUMPDEST SWAP1 DUP1 PUSH1 0x20 DUP4 MLOAD SWAP2 DUP3 DUP2 MSTORE ADD SWAP2 PUSH1 0x20 DUP1 DUP4 PUSH1 0x5 SHL DUP4 ADD ADD SWAP5 ADD SWAP3 PUSH1 0x0 SWAP2 JUMPDEST DUP4 DUP4 LT PUSH2 0x1A4C JUMPI POP POP POP POP POP SWAP1 JUMP JUMPDEST SWAP1 SWAP2 SWAP3 SWAP4 SWAP5 PUSH1 0x20 DUP1 PUSH2 0x1A6A PUSH1 0x1 SWAP4 PUSH1 0x1F NOT DUP7 DUP3 SUB ADD DUP8 MSTORE DUP10 MLOAD PUSH2 0x19FB JUMP JUMPDEST SWAP8 ADD SWAP4 ADD SWAP4 ADD SWAP2 SWAP4 SWAP3 SWAP1 PUSH2 0x1A3D JUMP JUMPDEST PUSH1 0x4 CALLDATALOAD SWAP1 PUSH1 0x1 PUSH1 0x1 PUSH1 0xA0 SHL SUB DUP3 AND DUP3 SUB PUSH2 0x1DF JUMPI JUMP JUMPDEST DUP2 PUSH1 0x1F DUP3 ADD SLT ISZERO PUSH2 0x1DF JUMPI DUP1 CALLDATALOAD SWAP1 PUSH1 0x1 PUSH1 0x1 PUSH1 0x40 SHL SUB DUP3 GT PUSH2 0xB58 JUMPI PUSH1 0x40 MLOAD SWAP3 PUSH2 0x1AC3 PUSH1 0x1F DUP5 ADD PUSH1 0x1F NOT AND PUSH1 0x20 ADD DUP6 PUSH2 0x1913 JUMP JUMPDEST DUP3 DUP5 MSTORE PUSH1 0x20 DUP4 DUP4 ADD ADD GT PUSH2 0x1DF JUMPI DUP2 PUSH1 0x0 SWAP3 PUSH1 0x20 DUP1 SWAP4 ADD DUP4 DUP7 ADD CALLDATACOPY DUP4 ADD ADD MSTORE SWAP1 JUMP JUMPDEST PUSH1 0x20 SWAP1 PUSH2 0x1AFF SWAP3 DUP3 PUSH1 0x40 MLOAD SWAP5 DUP4 DUP7 DUP1 SWAP6 MLOAD SWAP4 DUP5 SWAP3 ADD PUSH2 0x19D8 JUMP JUMPDEST DUP3 ADD SWAP1 DUP2 MSTORE SUB ADD SWAP1 KECCAK256 SWAP1 JUMP JUMPDEST PUSH1 0x1 PUSH1 0x1 PUSH1 0x40 SHL SUB DUP2 GT PUSH2 0xB58 JUMPI PUSH1 0x5 SHL PUSH1 0x20 ADD SWAP1 JUMP JUMPDEST SWAP1 DUP1 PUSH1 0x1F DUP4 ADD SLT ISZERO PUSH2 0x1DF JUMPI DUP2 CALLDATALOAD PUSH2 0x1B39 DUP2 PUSH2 0x1B0B JUMP JUMPDEST SWAP3 PUSH2 0x1B47 PUSH1 0x40 MLOAD SWAP5 DUP6 PUSH2 0x1913 JUMP JUMPDEST DUP2 DUP5 MSTORE PUSH1 0x20 DUP1 DUP6 ADD SWAP3 PUSH1 0x5 SHL DUP3 ADD ADD SWAP2 DUP4 DUP4 GT PUSH2 0x1DF JUMPI PUSH1 0x20 DUP3 ADD SWAP1 JUMPDEST DUP4 DUP3 LT PUSH2 0x1B73 JUMPI POP POP POP POP POP SWAP1 JUMP JUMPDEST DUP2 CALLDATALOAD PUSH1 0x1 PUSH1 0x1 PUSH1 0x40 SHL SUB DUP2 GT PUSH2 0x1DF JUMPI PUSH1 0x20 SWAP2 PUSH2 0x1B95 DUP8 DUP5 DUP1 SWAP5 DUP9 ADD ADD PUSH2 0x1A8F JUMP JUMPDEST DUP2 MSTORE ADD SWAP2 ADD SWAP1 PUSH2 0x1B64 JUMP JUMPDEST SWAP1 DUP1 PUSH1 0x1F DUP4 ADD SLT ISZERO PUSH2 0x1DF JUMPI DUP2 CALLDATALOAD PUSH2 0x1BB7 DUP2 PUSH2 0x1B0B JUMP JUMPDEST SWAP3 PUSH2 0x1BC5 PUSH1 0x40 MLOAD SWAP5 DUP6 PUSH2 0x1913 JUMP JUMPDEST DUP2 DUP5 MSTORE PUSH1 0x20 DUP1 DUP6 ADD SWAP3 PUSH1 0x5 SHL DUP3 ADD ADD SWAP2 DUP4 DUP4 GT PUSH2 0x1DF JUMPI PUSH1 0x20 DUP3 ADD SWAP1 JUMPDEST DUP4 DUP3 LT PUSH2 0x1BF1 JUMPI POP POP POP POP POP SWAP1 JUMP JUMPDEST DUP2 CALLDATALOAD PUSH1 0x1 PUSH1 0x1 PUSH1 0x40 SHL SUB DUP2 GT PUSH2 0x1DF JUMPI PUSH1 0x20 SWAP2 PUSH2 0x1C13 DUP8 DUP5 DUP1 SWAP5 DUP9 ADD ADD PUSH2 0x1B22 JUMP JUMPDEST DUP2 MSTORE ADD SWAP2 ADD SWAP1 PUSH2 0x1BE2 JUMP JUMPDEST PUSH1 0x0 SWAP3 SWAP2 DUP2 SLOAD SWAP2 PUSH2 0x1C2E DUP4 PUSH2 0x18BE JUMP JUMPDEST SWAP3 PUSH1 0x1 DUP2 AND SWAP1 DUP2 ISZERO PUSH2 0x1C79 JUMPI POP PUSH1 0x1 EQ PUSH2 0x1C47 JUMPI POP POP POP JUMP JUMPDEST SWAP1 SWAP2 SWAP3 SWAP4 POP PUSH1 0x0 MSTORE PUSH1 0x20 PUSH1 0x0 KECCAK256 PUSH1 0x0 SWAP1 JUMPDEST DUP4 DUP3 LT PUSH2 0x1C65 JUMPI POP POP ADD SWAP1 JUMP JUMPDEST PUSH1 0x1 DUP2 PUSH1 0x20 SWAP3 SLOAD DUP5 DUP7 ADD MSTORE ADD SWAP2 ADD SWAP1 PUSH2 0x1C58 JUMP JUMPDEST PUSH1 0xFF NOT AND DUP4 MSTORE POP POP DUP2 ISZERO ISZERO SWAP1 SWAP2 MUL ADD SWAP2 POP JUMP JUMPDEST PUSH1 0x0 NOT DUP2 EQ PUSH2 0x15EC JUMPI PUSH1 0x1 ADD SWAP1 JUMP JUMPDEST DUP1 MLOAD DUP3 LT ISZERO PUSH2 0x188D JUMPI PUSH1 0x20 SWAP2 PUSH1 0x5 SHL ADD ADD SWAP1 JUMP JUMPDEST ISZERO PUSH2 0x1CB6 JUMPI JUMP JUMPDEST PUSH1 0x40 MLOAD PUSH3 0x461BCD PUSH1 0xE5 SHL DUP2 MSTORE PUSH1 0x20 PUSH1 0x4 DUP3 ADD MSTORE PUSH1 0x21 PUSH1 0x24 DUP3 ADD MSTORE PUSH32 0x4F6E6C79206F776E65722063616E2063616C6C20746869732066756E6374696F PUSH1 0x44 DUP3 ADD MSTORE PUSH1 0x37 PUSH1 0xF9 SHL PUSH1 0x64 DUP3 ADD MSTORE PUSH1 0x84 SWAP1 REVERT JUMPDEST ISZERO PUSH2 0x1D0C JUMPI JUMP JUMPDEST PUSH1 0x40 MLOAD PUSH3 0x461BCD PUSH1 0xE5 SHL DUP2 MSTORE PUSH1 0x20 PUSH1 0x4 DUP3 ADD MSTORE PUSH1 0x17 PUSH1 0x24 DUP3 ADD MSTORE PUSH32 0x456C656374696F6E20646F6573206E6F74206578697374000000000000000000 PUSH1 0x44 DUP3 ADD MSTORE PUSH1 0x64 SWAP1 REVERT JUMPDEST ISZERO PUSH2 0x1D58 JUMPI JUMP JUMPDEST PUSH1 0x40 MLOAD PUSH3 0x461BCD PUSH1 0xE5 SHL DUP2 MSTORE PUSH1 0x20 PUSH1 0x4 DUP3 ADD MSTORE PUSH1 0xF PUSH1 0x24 DUP3 ADD MSTORE PUSH15 0x496E76616C69642061646472657373 PUSH1 0x88 SHL PUSH1 0x44 DUP3 ADD MSTORE PUSH1 0x64 SWAP1 REVERT JUMPDEST SWAP1 PUSH1 0x1 SLOAD SWAP2 PUSH1 0x1 PUSH1 0x40 SHL DUP4 LT ISZERO PUSH2 0xB58 JUMPI PUSH1 0x1 DUP4 ADD PUSH1 0x1 SSTORE PUSH1 0x0 SWAP3 PUSH1 0x1 SLOAD DUP2 LT ISZERO PUSH2 0x1DFD JUMPI PUSH1 0x1 SWAP1 SWAP4 MSTORE PUSH32 0xB10E2D527612073B26EECDFD717E6A320CF44B4AFAC2B0732D9FCBE2B7FA0CF6 SWAP1 SWAP3 ADD DUP1 SLOAD PUSH1 0x1 PUSH1 0x1 PUSH1 0xA0 SHL SUB NOT AND PUSH1 0x1 PUSH1 0x1 PUSH1 0xA0 SHL SUB SWAP1 SWAP4 AND SWAP3 SWAP1 SWAP3 OR SWAP1 SWAP2 SSTORE JUMP JUMPDEST PUSH4 0x4E487B71 PUSH1 0xE0 SHL DUP5 MSTORE PUSH1 0x32 PUSH1 0x4 MSTORE PUSH1 0x24 DUP5 REVERT JUMPDEST ISZERO PUSH2 0x1E18 JUMPI JUMP JUMPDEST PUSH1 0x40 MLOAD PUSH3 0x461BCD PUSH1 0xE5 SHL DUP2 MSTORE PUSH1 0x20 PUSH1 0x4 DUP3 ADD MSTORE PUSH1 0x21 PUSH1 0x24 DUP3 ADD MSTORE PUSH32 0x4F6E6C792061646D696E2063616E2063616C6C20746869732066756E6374696F PUSH1 0x44 DUP3 ADD MSTORE PUSH1 0x37 PUSH1 0xF9 SHL PUSH1 0x64 DUP3 ADD MSTORE PUSH1 0x84 SWAP1 REVERT JUMPDEST ISZERO PUSH2 0x1E6E JUMPI JUMP JUMPDEST PUSH1 0x40 MLOAD PUSH3 0x461BCD PUSH1 0xE5 SHL DUP2 MSTORE PUSH1 0x20 PUSH1 0x4 DUP3 ADD MSTORE PUSH1 0x14 PUSH1 0x24 DUP3 ADD MSTORE PUSH20 0x115B1958DD1A5BDB881A5CC8185C98DA1A5D9959 PUSH1 0x62 SHL PUSH1 0x44 DUP3 ADD MSTORE PUSH1 0x64 SWAP1 REVERT JUMPDEST SWAP2 SWAP1 SWAP2 DUP3 MLOAD PUSH1 0x1 PUSH1 0x1 PUSH1 0x40 SHL SUB DUP2 GT PUSH2 0xB58 JUMPI PUSH2 0x1EC7 DUP3 SLOAD PUSH2 0x18BE JUMP JUMPDEST PUSH1 0x1F DUP2 GT PUSH2 0x1F6D JUMPI JUMPDEST POP PUSH1 0x20 PUSH1 0x1F DUP3 GT PUSH1 0x1 EQ PUSH2 0x1F0B JUMPI DUP2 SWAP3 SWAP4 SWAP5 PUSH1 0x0 SWAP3 PUSH2 0x1F00 JUMPI JUMPDEST POP POP DUP2 PUSH1 0x1 SHL SWAP2 PUSH1 0x0 NOT SWAP1 PUSH1 0x3 SHL SHR NOT AND OR SWAP1 SSTORE JUMP JUMPDEST ADD MLOAD SWAP1 POP CODESIZE DUP1 PUSH2 0x1EEA JUMP JUMPDEST PUSH1 0x1F NOT DUP3 AND SWAP1 DUP4 PUSH1 0x0 MSTORE DUP1 PUSH1 0x0 KECCAK256 SWAP2 PUSH1 0x0 JUMPDEST DUP2 DUP2 LT PUSH2 0x1F55 JUMPI POP SWAP6 DUP4 PUSH1 0x1 SWAP6 SWAP7 SWAP8 LT PUSH2 0x1F3C JUMPI JUMPDEST POP POP POP DUP2 SHL ADD SWAP1 SSTORE JUMP JUMPDEST ADD MLOAD PUSH1 0x0 NOT PUSH1 0xF8 DUP5 PUSH1 0x3 SHL AND SHR NOT AND SWAP1 SSTORE CODESIZE DUP1 DUP1 PUSH2 0x1F32 JUMP JUMPDEST SWAP2 SWAP3 PUSH1 0x20 PUSH1 0x1 DUP2 SWAP3 DUP7 DUP12 ADD MLOAD DUP2 SSTORE ADD SWAP5 ADD SWAP3 ADD PUSH2 0x1F1D JUMP JUMPDEST DUP3 PUSH1 0x0 MSTORE PUSH1 0x20 PUSH1 0x0 KECCAK256 PUSH1 0x1F DUP4 ADD PUSH1 0x5 SHR DUP2 ADD SWAP2 PUSH1 0x20 DUP5 LT PUSH2 0x1FAB JUMPI JUMPDEST PUSH1 0x1F ADD PUSH1 0x5 SHR ADD SWAP1 JUMPDEST DUP2 DUP2 LT PUSH2 0x1F9F JUMPI POP PUSH2 0x1ED0 JUMP JUMPDEST PUSH1 0x0 DUP2 SSTORE PUSH1 0x1 ADD PUSH2 0x1F92 JUMP JUMPDEST SWAP1 SWAP2 POP DUP2 SWAP1 PUSH2 0x1F89 JUMP JUMPDEST DUP1 SLOAD DUP3 LT ISZERO PUSH2 0x188D JUMPI PUSH1 0x0 MSTORE PUSH1 0x3 PUSH1 0x20 PUSH1 0x0 KECCAK256 SWAP2 MUL ADD SWAP1 PUSH1 0x0 SWAP1 JUMP INVALID LOG2 PUSH5 0x6970667358 0x22 SLT KECCAK256 LOG0 CALLVALUE 0x2D 0x2B 0xC3 OR JUMP 0x2C TLOAD PUSH1 0x7E DIV 0xCB 0xE2 PUSH24 0xD0F37337AC9E56CD05AFD7FFFC532C325664736F6C634300 ADDMOD SHR STOP CALLER "},"methodIdentifiers":{"addAdmin(address)":"70480275","admins(uint256)":"14bfd6d0","archiveElection(string)":"9b96951d","createElection(string,string,string[],string[],string[][],string[][])":"9b0b5985","electionIds(uint256)":"02330a61","elections(string)":"4a3ccc96","getActiveElectionIds()":"10f28063","getAdmins()":"31ae450b","getAllElectionIds()":"dee40f74","getElection(string)":"4771b573","hasUserVoted(string,address)":"41497385","hasVoted(address,string)":"c6847060","isAdmin(address)":"24d7806c","owner()":"8da5cb5b","removeAdmin(address)":"1785f53c","toggleElectionStatus(string,bool)":"921ec12f","transferOwnership(address)":"f2fde38b","voteMultiple(string,string[],string[])":"e5de3eaa"}}}}}