{"contracts/elections.sol":{"Election":{"abi":[{"inputs":[{"internalType":"string","name":"_title","type":"string"},{"internalType":"string","name":"_description","type":"string"},{"internalType":"uint256","name":"_startDate","type":"uint256"},{"internalType":"uint256","name":"_endDate","type":"uint256"}],"stateMutability":"nonpayable","type":"constructor"},{"anonymous":false,"inputs":[{"indexed":false,"internalType":"string","name":"title","type":"string"},{"indexed":false,"internalType":"uint256","name":"endDate","type":"uint256"}],"name":"ElectionEnded","type":"event"},{"anonymous":false,"inputs":[{"indexed":false,"internalType":"string","name":"title","type":"string"},{"indexed":false,"internalType":"uint256","name":"startDate","type":"uint256"}],"name":"ElectionStarted","type":"event"},{"anonymous":false,"inputs":[{"indexed":false,"internalType":"address","name":"voter","type":"address"},{"indexed":false,"internalType":"uint256","name":"positionId","type":"uint256"},{"indexed":false,"internalType":"uint256","name":"candidateId","type":"uint256"}],"name":"Voted","type":"event"},{"inputs":[{"internalType":"uint256","name":"_positionId","type":"uint256"},{"internalType":"uint256","name":"_candidateId","type":"uint256"},{"internalType":"string","name":"_name","type":"string"}],"name":"addCandidate","outputs":[],"stateMutability":"nonpayable","type":"function"},{"inputs":[{"internalType":"uint256","name":"_positionId","type":"uint256"},{"internalType":"string","name":"_title","type":"string"}],"name":"addPosition","outputs":[],"stateMutability":"nonpayable","type":"function"},{"inputs":[],"name":"admin","outputs":[{"internalType":"address","name":"","type":"address"}],"stateMutability":"view","type":"function"},{"inputs":[],"name":"description","outputs":[{"internalType":"string","name":"","type":"string"}],"stateMutability":"view","type":"function"},{"inputs":[],"name":"endDate","outputs":[{"internalType":"uint256","name":"","type":"uint256"}],"stateMutability":"view","type":"function"},{"inputs":[],"name":"endElection","outputs":[],"stateMutability":"nonpayable","type":"function"},{"inputs":[{"internalType":"uint256","name":"_positionId","type":"uint256"},{"internalType":"uint256","name":"_candidateIndex","type":"uint256"}],"name":"getCandidateVotes","outputs":[{"internalType":"uint256","name":"","type":"uint256"}],"stateMutability":"view","type":"function"},{"inputs":[{"internalType":"address","name":"","type":"address"}],"name":"hasVoted","outputs":[{"internalType":"bool","name":"","type":"bool"}],"stateMutability":"view","type":"function"},{"inputs":[],"name":"isLive","outputs":[{"internalType":"bool","name":"","type":"bool"}],"stateMutability":"view","type":"function"},{"inputs":[{"internalType":"uint256","name":"","type":"uint256"}],"name":"positions","outputs":[{"internalType":"uint256","name":"id","type":"uint256"},{"internalType":"string","name":"title","type":"string"}],"stateMutability":"view","type":"function"},{"inputs":[],"name":"startDate","outputs":[{"internalType":"uint256","name":"","type":"uint256"}],"stateMutability":"view","type":"function"},{"inputs":[],"name":"startElection","outputs":[],"stateMutability":"nonpayable","type":"function"},{"inputs":[],"name":"title","outputs":[{"internalType":"string","name":"","type":"string"}],"stateMutability":"view","type":"function"},{"inputs":[{"internalType":"uint256","name":"_positionId","type":"uint256"},{"internalType":"uint256","name":"_candidateIndex","type":"uint256"}],"name":"vote","outputs":[],"stateMutability":"nonpayable","type":"function"}],"evm":{"bytecode":{"linkReferences":{},"object":"6080604052346103525761124a8038038061001981610357565b9283398101906080818303126103525780516001600160401b038111610352578261004591830161037c565b602082015190926001600160401b0382116103525761006591830161037c565b6040820151606090920151600080546001600160a01b031916331790558351919290916001600160401b03811161025b57600154600181811c91168015610348575b602082101461023b57601f81116102e3575b50602094601f821160011461027c57948192939495600092610271575b50508160011b916000199060031b1c1916176001555b82516001600160401b03811161025b57600254600181811c91168015610251575b602082101461023b57601f81116101d6575b506020601f821160011461016f5781929394600092610164575b50508160011b916000199060031b1c1916176002555b600355600455604051610e6290816103e88239f35b015190503880610139565b601f198216906002600052806000209160005b8181106101be575095836001959697106101a5575b505050811b0160025561014f565b015160001960f88460031b161c19169055388080610197565b9192602060018192868b015181550194019201610182565b60026000527f405787fa12a823e0f2b7631cc41b3ba8828b3321ca811111fa75cd3aa3bb5ace601f830160051c81019160208410610231575b601f0160051c01905b818110610225575061011f565b60008155600101610218565b909150819061020f565b634e487b7160e01b600052602260045260246000fd5b90607f169061010d565b634e487b7160e01b600052604160045260246000fd5b0151905038806100d6565b601f198216956001600052806000209160005b8881106102cb575083600195969798106102b2575b505050811b016001556100ec565b015160001960f88460031b161c191690553880806102a4565b9192602060018192868501518155019401920161028f565b60016000527fb10e2d527612073b26eecdfd717e6a320cf44b4afac2b0732d9fcbe2b7fa0cf6601f830160051c8101916020841061033e575b601f0160051c01905b81811061033257506100b9565b60008155600101610325565b909150819061031c565b90607f16906100a7565b600080fd5b6040519190601f01601f191682016001600160401b0381118382101761025b57604052565b81601f82011215610352578051906001600160401b03821161025b576103ab601f8301601f1916602001610357565b92828452602083830101116103525760005b8281106103d257505060206000918301015290565b806020809284010151828287010152016103bd56fe608080604052600436101561001357600080fd5b60003560e01c90816309eef43e14610a57575080630b97bc8614610a39578063112d26a914610a055780634a79d50c1461095d57806359f78468146108ad57806362d73eb8146107f55780637284e4161461071457806399fbab881461062b578063a958f1aa14610559578063b0a5df6e14610268578063b384abef14610128578063b8f7a66514610105578063c24a0f8b146100e75763f851a440146100b957600080fd5b346100e25760003660031901126100e2576000546040516001600160a01b039091168152602090f35b600080fd5b346100e25760003660031901126100e2576020600454604051908152f35b346100e25760003660031901126100e257602060ff600554166040519015158152f35b346100e25761013636610a97565b60ff600554161561022c5733600052600760205260ff604060002054166101ee5781600052600660205260026101728282604060002001610bbd565b50019182549160001983146101d8577fea66f58e474bc09f580000e81f31b334d171db387d0c6098ba47bd897741679b9360016060940190553360005260076020526040600020600160ff198254161790556040519133835260208301526040820152a1005b634e487b7160e01b600052601160045260246000fd5b60405162461bcd60e51b8152602060048201526016602482015275165bdd481a185d9948185b1c9958591e481d9bdd195960521b6044820152606490fd5b60405162461bcd60e51b8152602060048201526014602482015273456c656374696f6e206973206e6f74206c69766560601b6044820152606490fd5b346100e25760403660031901126100e25760043560243567ffffffffffffffff81116100e25761029e6001913690600401610b66565b916102b3828060a01b03600054163314610bef565b6040516020916102c38383610b03565b60008252600093610554575b604051906102dc82610ae7565b80825283820195865260408201928352845260068352604084209051815560018101945194855167ffffffffffffffff81116105405761031c8254610aad565b601f8111610507575b5084601f82116001146104a157908061035a928899600297989992610496575b50508160011b916000199060031b1c19161790565b90555b01905191825192600160401b841161048257819083548585558086106103b1575b500191845280842084925b848410610394578580f35b600383826103a56001945186610d0d565b01920193019290610389565b8091925060030290600382040361046e578460030260038104860361045a57848752838720849392810191015b8181106103eb575061037e565b60039192935087815587600182016104038154610aad565b8061041a575b5050600282015501908392916103de565b601f81116001146104305750555b878980610409565b81835287832061044b91601f0160051c810190600101610cf6565b80825281878120915555610428565b634e487b7160e01b87526011600452602487fd5b634e487b7160e01b86526011600452602486fd5b634e487b7160e01b85526041600452602485fd5b015190508980610345565b82875285872097601f198316885b8181106104f0575091600296979899918460019594106104d7575b505050811b01905561035d565b015160001960f88460031b161c191690558880806104ca565b838301518b556001909a01999288019288016104af565b61053090838852868820601f840160051c810191888510610536575b601f0160051c0190610cf6565b87610325565b9091508190610523565b634e487b7160e01b86526041600452602486fd5b6102cf565b346100e25760603660031901126100e25760443567ffffffffffffffff81116100e25761058a903690600401610b66565b61059f60018060a01b03600054163314610bef565b60043560005260066020526002604060002001604051916105bf83610ae7565b60243583526020830152600060408301528054600160401b811015610615576105ed91600182018155610bbd565b9190916105ff576105fd91610d0d565b005b634e487b7160e01b600052600060045260246000fd5b634e487b7160e01b600052604160045260246000fd5b346100e25760203660031901126100e25760043560005260066020526040600020600181549101906040519182600082549261066684610aad565b80845293600181169081156106f257506001146106ab575b5061068b92500383610b03565b6106a76040519283928352604060208401526040830190610b25565b0390f35b90506000929192526020600020906000915b8183106106d657505090602061068b928201018561067e565b60209193508060019154838589010152019101909184926106bd565b90506020925061068b94915060ff191682840152151560051b8201018561067e565b346100e25760003660031901126100e257604051600060025461073681610aad565b80845290600181169081156107d15750600114610772575b6106a78361075e81850382610b03565b604051918291602083526020830190610b25565b600260009081527f405787fa12a823e0f2b7631cc41b3ba8828b3321ca811111fa75cd3aa3bb5ace939250905b8082106107b75750909150810160200161075e61074e565b91926001816020925483858801015201910190929161079f565b60ff191660208086019190915291151560051b8401909101915061075e905061074e565b346100e25760003660031901126100e25761081b60018060a01b03600054163314610bef565b600354804210610868576108637f627fedc2c091c67f445c74dafa73901e80b09b2f142b1fc11fe75960202b41fd91600160ff19600554161760055560405191829182610c46565b0390a1005b60405162461bcd60e51b815260206004820152601f60248201527f456c656374696f6e2073746172742064617465206e6f742072656163686564006044820152606490fd5b346100e25760003660031901126100e2576108d360018060a01b03600054163314610bef565b600454804210610918576108637f4d31db6748edbbd9e5b81d507a6477be9bddc93567dc5e6fac4e6bae81f27fa59160ff196005541660055560405191829182610c46565b60405162461bcd60e51b815260206004820152601d60248201527f456c656374696f6e20656e642064617465206e6f7420726561636865640000006044820152606490fd5b346100e25760003660031901126100e257604051600060015461097f81610aad565b80845290600181169081156107d157506001146109a6576106a78361075e81850382610b03565b600160009081527fb10e2d527612073b26eecdfd717e6a320cf44b4afac2b0732d9fcbe2b7fa0cf6939250905b8082106109eb5750909150810160200161075e61074e565b9192600181602092548385880101520191019092916109d3565b346100e25760206002610a2e610a1a36610a97565b906000526006845282604060002001610bbd565b500154604051908152f35b346100e25760003660031901126100e2576020600354604051908152f35b346100e25760203660031901126100e2576004356001600160a01b03811691908290036100e2576020916000526007825260ff6040600020541615158152f35b60409060031901126100e2576004359060243590565b90600182811c92168015610add575b6020831014610ac757565b634e487b7160e01b600052602260045260246000fd5b91607f1691610abc565b6060810190811067ffffffffffffffff82111761061557604052565b90601f8019910116810190811067ffffffffffffffff82111761061557604052565b919082519283825260005b848110610b51575050826000602080949584010152601f8019910116010190565b80602080928401015182828601015201610b30565b81601f820112156100e25780359067ffffffffffffffff82116106155760405192610b9b601f8401601f191660200185610b03565b828452602083830101116100e257816000926020809301838601378301015290565b8054821015610bd9576000526003602060002091020190600090565b634e487b7160e01b600052603260045260246000fd5b15610bf657565b60405162461bcd60e51b815260206004820152602260248201527f4f6e6c792061646d696e2063616e20706572666f726d2074686973206163746960448201526137b760f11b6064820152608490fd5b919060408352600060015490610c5b82610aad565b91826040870152600181169081600014610cd85750600114610c81575b60209150930152565b50600160009081527fb10e2d527612073b26eecdfd717e6a320cf44b4afac2b0732d9fcbe2b7fa0cf65b828210610cc15750602091508401606001610c78565b600181602092546060858a01015201910190610cab565b60609250602093915060ff191682870152151560051b850101610c78565b818110610d01575050565b60008155600101610cf6565b908051825560018201602082015180519067ffffffffffffffff821161061557610d378354610aad565b601f8111610dfa575b50602090601f8311600114610d8d57826002959360409593610d7893600092610d825750508160011b916000199060031b1c19161790565b90555b0151910155565b015190503880610345565b90601f1983169184600052816000209260005b818110610de25750926001928592600298966040989610610dc9575b505050811b019055610d7b565b015160001960f88460031b161c19169055388080610dbc565b92936020600181928786015181550195019301610da0565b610e2690846000526020600020601f850160051c8101916020861061053657601f0160051c0190610cf6565b38610d4056fea2646970667358221220f8968ffa5a4c347fb27a4d63e8cdf0f8c678db97fe26dec9a3691eff642d5c6b64736f6c634300081c0033","opcodes":"PUSH1 0x80 PUSH1 0x40 MSTORE CALLVALUE PUSH2 0x352 JUMPI PUSH2 0x124A DUP1 CODESIZE SUB DUP1 PUSH2 0x19 DUP2 PUSH2 0x357 JUMP JUMPDEST SWAP3 DUP4 CODECOPY DUP2 ADD SWAP1 PUSH1 0x80 DUP2 DUP4 SUB SLT PUSH2 0x352 JUMPI DUP1 MLOAD PUSH1 0x1 PUSH1 0x1 PUSH1 0x40 SHL SUB DUP2 GT PUSH2 0x352 JUMPI DUP3 PUSH2 0x45 SWAP2 DUP4 ADD PUSH2 0x37C JUMP JUMPDEST PUSH1 0x20 DUP3 ADD MLOAD SWAP1 SWAP3 PUSH1 0x1 PUSH1 0x1 PUSH1 0x40 SHL SUB DUP3 GT PUSH2 0x352 JUMPI PUSH2 0x65 SWAP2 DUP4 ADD PUSH2 0x37C JUMP JUMPDEST PUSH1 0x40 DUP3 ADD MLOAD PUSH1 0x60 SWAP1 SWAP3 ADD MLOAD PUSH1 0x0 DUP1 SLOAD PUSH1 0x1 PUSH1 0x1 PUSH1 0xA0 SHL SUB NOT AND CALLER OR SWAP1 SSTORE DUP4 MLOAD SWAP2 SWAP3 SWAP1 SWAP2 PUSH1 0x1 PUSH1 0x1 PUSH1 0x40 SHL SUB DUP2 GT PUSH2 0x25B JUMPI PUSH1 0x1 SLOAD PUSH1 0x1 DUP2 DUP2 SHR SWAP2 AND DUP1 ISZERO PUSH2 0x348 JUMPI JUMPDEST PUSH1 0x20 DUP3 LT EQ PUSH2 0x23B JUMPI PUSH1 0x1F DUP2 GT PUSH2 0x2E3 JUMPI JUMPDEST POP PUSH1 0x20 SWAP5 PUSH1 0x1F DUP3 GT PUSH1 0x1 EQ PUSH2 0x27C JUMPI SWAP5 DUP2 SWAP3 SWAP4 SWAP5 SWAP6 PUSH1 0x0 SWAP3 PUSH2 0x271 JUMPI JUMPDEST POP POP DUP2 PUSH1 0x1 SHL SWAP2 PUSH1 0x0 NOT SWAP1 PUSH1 0x3 SHL SHR NOT AND OR PUSH1 0x1 SSTORE JUMPDEST DUP3 MLOAD PUSH1 0x1 PUSH1 0x1 PUSH1 0x40 SHL SUB DUP2 GT PUSH2 0x25B JUMPI PUSH1 0x2 SLOAD PUSH1 0x1 DUP2 DUP2 SHR SWAP2 AND DUP1 ISZERO PUSH2 0x251 JUMPI JUMPDEST PUSH1 0x20 DUP3 LT EQ PUSH2 0x23B JUMPI PUSH1 0x1F DUP2 GT PUSH2 0x1D6 JUMPI JUMPDEST POP PUSH1 0x20 PUSH1 0x1F DUP3 GT PUSH1 0x1 EQ PUSH2 0x16F JUMPI DUP2 SWAP3 SWAP4 SWAP5 PUSH1 0x0 SWAP3 PUSH2 0x164 JUMPI JUMPDEST POP POP DUP2 PUSH1 0x1 SHL SWAP2 PUSH1 0x0 NOT SWAP1 PUSH1 0x3 SHL SHR NOT AND OR PUSH1 0x2 SSTORE JUMPDEST PUSH1 0x3 SSTORE PUSH1 0x4 SSTORE PUSH1 0x40 MLOAD PUSH2 0xE62 SWAP1 DUP2 PUSH2 0x3E8 DUP3 CODECOPY RETURN JUMPDEST ADD MLOAD SWAP1 POP CODESIZE DUP1 PUSH2 0x139 JUMP JUMPDEST PUSH1 0x1F NOT DUP3 AND SWAP1 PUSH1 0x2 PUSH1 0x0 MSTORE DUP1 PUSH1 0x0 KECCAK256 SWAP2 PUSH1 0x0 JUMPDEST DUP2 DUP2 LT PUSH2 0x1BE JUMPI POP SWAP6 DUP4 PUSH1 0x1 SWAP6 SWAP7 SWAP8 LT PUSH2 0x1A5 JUMPI JUMPDEST POP POP POP DUP2 SHL ADD PUSH1 0x2 SSTORE PUSH2 0x14F JUMP JUMPDEST ADD MLOAD PUSH1 0x0 NOT PUSH1 0xF8 DUP5 PUSH1 0x3 SHL AND SHR NOT AND SWAP1 SSTORE CODESIZE DUP1 DUP1 PUSH2 0x197 JUMP JUMPDEST SWAP2 SWAP3 PUSH1 0x20 PUSH1 0x1 DUP2 SWAP3 DUP7 DUP12 ADD MLOAD DUP2 SSTORE ADD SWAP5 ADD SWAP3 ADD PUSH2 0x182 JUMP JUMPDEST PUSH1 0x2 PUSH1 0x0 MSTORE PUSH32 0x405787FA12A823E0F2B7631CC41B3BA8828B3321CA811111FA75CD3AA3BB5ACE PUSH1 0x1F DUP4 ADD PUSH1 0x5 SHR DUP2 ADD SWAP2 PUSH1 0x20 DUP5 LT PUSH2 0x231 JUMPI JUMPDEST PUSH1 0x1F ADD PUSH1 0x5 SHR ADD SWAP1 JUMPDEST DUP2 DUP2 LT PUSH2 0x225 JUMPI POP PUSH2 0x11F JUMP JUMPDEST PUSH1 0x0 DUP2 SSTORE PUSH1 0x1 ADD PUSH2 0x218 JUMP JUMPDEST SWAP1 SWAP2 POP DUP2 SWAP1 PUSH2 0x20F JUMP JUMPDEST PUSH4 0x4E487B71 PUSH1 0xE0 SHL PUSH1 0x0 MSTORE PUSH1 0x22 PUSH1 0x4 MSTORE PUSH1 0x24 PUSH1 0x0 REVERT JUMPDEST SWAP1 PUSH1 0x7F AND SWAP1 PUSH2 0x10D JUMP JUMPDEST PUSH4 0x4E487B71 PUSH1 0xE0 SHL PUSH1 0x0 MSTORE PUSH1 0x41 PUSH1 0x4 MSTORE PUSH1 0x24 PUSH1 0x0 REVERT JUMPDEST ADD MLOAD SWAP1 POP CODESIZE DUP1 PUSH2 0xD6 JUMP JUMPDEST PUSH1 0x1F NOT DUP3 AND SWAP6 PUSH1 0x1 PUSH1 0x0 MSTORE DUP1 PUSH1 0x0 KECCAK256 SWAP2 PUSH1 0x0 JUMPDEST DUP9 DUP2 LT PUSH2 0x2CB JUMPI POP DUP4 PUSH1 0x1 SWAP6 SWAP7 SWAP8 SWAP9 LT PUSH2 0x2B2 JUMPI JUMPDEST POP POP POP DUP2 SHL ADD PUSH1 0x1 SSTORE PUSH2 0xEC JUMP JUMPDEST ADD MLOAD PUSH1 0x0 NOT PUSH1 0xF8 DUP5 PUSH1 0x3 SHL AND SHR NOT AND SWAP1 SSTORE CODESIZE DUP1 DUP1 PUSH2 0x2A4 JUMP JUMPDEST SWAP2 SWAP3 PUSH1 0x20 PUSH1 0x1 DUP2 SWAP3 DUP7 DUP6 ADD MLOAD DUP2 SSTORE ADD SWAP5 ADD SWAP3 ADD PUSH2 0x28F JUMP JUMPDEST PUSH1 0x1 PUSH1 0x0 MSTORE PUSH32 0xB10E2D527612073B26EECDFD717E6A320CF44B4AFAC2B0732D9FCBE2B7FA0CF6 PUSH1 0x1F DUP4 ADD PUSH1 0x5 SHR DUP2 ADD SWAP2 PUSH1 0x20 DUP5 LT PUSH2 0x33E JUMPI JUMPDEST PUSH1 0x1F ADD PUSH1 0x5 SHR ADD SWAP1 JUMPDEST DUP2 DUP2 LT PUSH2 0x332 JUMPI POP PUSH2 0xB9 JUMP JUMPDEST PUSH1 0x0 DUP2 SSTORE PUSH1 0x1 ADD PUSH2 0x325 JUMP JUMPDEST SWAP1 SWAP2 POP DUP2 SWAP1 PUSH2 0x31C JUMP JUMPDEST SWAP1 PUSH1 0x7F AND SWAP1 PUSH2 0xA7 JUMP JUMPDEST PUSH1 0x0 DUP1 REVERT JUMPDEST PUSH1 0x40 MLOAD SWAP2 SWAP1 PUSH1 0x1F ADD PUSH1 0x1F NOT AND DUP3 ADD PUSH1 0x1 PUSH1 0x1 PUSH1 0x40 SHL SUB DUP2 GT DUP4 DUP3 LT OR PUSH2 0x25B JUMPI PUSH1 0x40 MSTORE JUMP JUMPDEST DUP2 PUSH1 0x1F DUP3 ADD SLT ISZERO PUSH2 0x352 JUMPI DUP1 MLOAD SWAP1 PUSH1 0x1 PUSH1 0x1 PUSH1 0x40 SHL SUB DUP3 GT PUSH2 0x25B JUMPI PUSH2 0x3AB PUSH1 0x1F DUP4 ADD PUSH1 0x1F NOT AND PUSH1 0x20 ADD PUSH2 0x357 JUMP JUMPDEST SWAP3 DUP3 DUP5 MSTORE PUSH1 0x20 DUP4 DUP4 ADD ADD GT PUSH2 0x352 JUMPI PUSH1 0x0 JUMPDEST DUP3 DUP2 LT PUSH2 0x3D2 JUMPI POP POP PUSH1 0x20 PUSH1 0x0 SWAP2 DUP4 ADD ADD MSTORE SWAP1 JUMP JUMPDEST DUP1 PUSH1 0x20 DUP1 SWAP3 DUP5 ADD ADD MLOAD DUP3 DUP3 DUP8 ADD ADD MSTORE ADD PUSH2 0x3BD JUMP INVALID PUSH1 0x80 DUP1 PUSH1 0x40 MSTORE PUSH1 0x4 CALLDATASIZE LT ISZERO PUSH2 0x13 JUMPI PUSH1 0x0 DUP1 REVERT JUMPDEST PUSH1 0x0 CALLDATALOAD PUSH1 0xE0 SHR SWAP1 DUP2 PUSH4 0x9EEF43E EQ PUSH2 0xA57 JUMPI POP DUP1 PUSH4 0xB97BC86 EQ PUSH2 0xA39 JUMPI DUP1 PUSH4 0x112D26A9 EQ PUSH2 0xA05 JUMPI DUP1 PUSH4 0x4A79D50C EQ PUSH2 0x95D JUMPI DUP1 PUSH4 0x59F78468 EQ PUSH2 0x8AD JUMPI DUP1 PUSH4 0x62D73EB8 EQ PUSH2 0x7F5 JUMPI DUP1 PUSH4 0x7284E416 EQ PUSH2 0x714 JUMPI DUP1 PUSH4 0x99FBAB88 EQ PUSH2 0x62B JUMPI DUP1 PUSH4 0xA958F1AA EQ PUSH2 0x559 JUMPI DUP1 PUSH4 0xB0A5DF6E EQ PUSH2 0x268 JUMPI DUP1 PUSH4 0xB384ABEF EQ PUSH2 0x128 JUMPI DUP1 PUSH4 0xB8F7A665 EQ PUSH2 0x105 JUMPI DUP1 PUSH4 0xC24A0F8B EQ PUSH2 0xE7 JUMPI PUSH4 0xF851A440 EQ PUSH2 0xB9 JUMPI PUSH1 0x0 DUP1 REVERT JUMPDEST CALLVALUE PUSH2 0xE2 JUMPI PUSH1 0x0 CALLDATASIZE PUSH1 0x3 NOT ADD SLT PUSH2 0xE2 JUMPI PUSH1 0x0 SLOAD PUSH1 0x40 MLOAD PUSH1 0x1 PUSH1 0x1 PUSH1 0xA0 SHL SUB SWAP1 SWAP2 AND DUP2 MSTORE PUSH1 0x20 SWAP1 RETURN JUMPDEST PUSH1 0x0 DUP1 REVERT JUMPDEST CALLVALUE PUSH2 0xE2 JUMPI PUSH1 0x0 CALLDATASIZE PUSH1 0x3 NOT ADD SLT PUSH2 0xE2 JUMPI PUSH1 0x20 PUSH1 0x4 SLOAD PUSH1 0x40 MLOAD SWAP1 DUP2 MSTORE RETURN JUMPDEST CALLVALUE PUSH2 0xE2 JUMPI PUSH1 0x0 CALLDATASIZE PUSH1 0x3 NOT ADD SLT PUSH2 0xE2 JUMPI PUSH1 0x20 PUSH1 0xFF PUSH1 0x5 SLOAD AND PUSH1 0x40 MLOAD SWAP1 ISZERO ISZERO DUP2 MSTORE RETURN JUMPDEST CALLVALUE PUSH2 0xE2 JUMPI PUSH2 0x136 CALLDATASIZE PUSH2 0xA97 JUMP JUMPDEST PUSH1 0xFF PUSH1 0x5 SLOAD AND ISZERO PUSH2 0x22C JUMPI CALLER PUSH1 0x0 MSTORE PUSH1 0x7 PUSH1 0x20 MSTORE PUSH1 0xFF PUSH1 0x40 PUSH1 0x0 KECCAK256 SLOAD AND PUSH2 0x1EE JUMPI DUP2 PUSH1 0x0 MSTORE PUSH1 0x6 PUSH1 0x20 MSTORE PUSH1 0x2 PUSH2 0x172 DUP3 DUP3 PUSH1 0x40 PUSH1 0x0 KECCAK256 ADD PUSH2 0xBBD JUMP JUMPDEST POP ADD SWAP2 DUP3 SLOAD SWAP2 PUSH1 0x0 NOT DUP4 EQ PUSH2 0x1D8 JUMPI PUSH32 0xEA66F58E474BC09F580000E81F31B334D171DB387D0C6098BA47BD897741679B SWAP4 PUSH1 0x1 PUSH1 0x60 SWAP5 ADD SWAP1 SSTORE CALLER PUSH1 0x0 MSTORE PUSH1 0x7 PUSH1 0x20 MSTORE PUSH1 0x40 PUSH1 0x0 KECCAK256 PUSH1 0x1 PUSH1 0xFF NOT DUP3 SLOAD AND OR SWAP1 SSTORE PUSH1 0x40 MLOAD SWAP2 CALLER DUP4 MSTORE PUSH1 0x20 DUP4 ADD MSTORE PUSH1 0x40 DUP3 ADD MSTORE LOG1 STOP JUMPDEST PUSH4 0x4E487B71 PUSH1 0xE0 SHL PUSH1 0x0 MSTORE PUSH1 0x11 PUSH1 0x4 MSTORE PUSH1 0x24 PUSH1 0x0 REVERT JUMPDEST PUSH1 0x40 MLOAD PUSH3 0x461BCD PUSH1 0xE5 SHL DUP2 MSTORE PUSH1 0x20 PUSH1 0x4 DUP3 ADD MSTORE PUSH1 0x16 PUSH1 0x24 DUP3 ADD MSTORE PUSH22 0x165BDD481A185D9948185B1C9958591E481D9BDD1959 PUSH1 0x52 SHL PUSH1 0x44 DUP3 ADD MSTORE PUSH1 0x64 SWAP1 REVERT JUMPDEST PUSH1 0x40 MLOAD PUSH3 0x461BCD PUSH1 0xE5 SHL DUP2 MSTORE PUSH1 0x20 PUSH1 0x4 DUP3 ADD MSTORE PUSH1 0x14 PUSH1 0x24 DUP3 ADD MSTORE PUSH20 0x456C656374696F6E206973206E6F74206C697665 PUSH1 0x60 SHL PUSH1 0x44 DUP3 ADD MSTORE PUSH1 0x64 SWAP1 REVERT JUMPDEST CALLVALUE PUSH2 0xE2 JUMPI PUSH1 0x40 CALLDATASIZE PUSH1 0x3 NOT ADD SLT PUSH2 0xE2 JUMPI PUSH1 0x4 CALLDATALOAD PUSH1 0x24 CALLDATALOAD PUSH8 0xFFFFFFFFFFFFFFFF DUP2 GT PUSH2 0xE2 JUMPI PUSH2 0x29E PUSH1 0x1 SWAP2 CALLDATASIZE SWAP1 PUSH1 0x4 ADD PUSH2 0xB66 JUMP JUMPDEST SWAP2 PUSH2 0x2B3 DUP3 DUP1 PUSH1 0xA0 SHL SUB PUSH1 0x0 SLOAD AND CALLER EQ PUSH2 0xBEF JUMP JUMPDEST PUSH1 0x40 MLOAD PUSH1 0x20 SWAP2 PUSH2 0x2C3 DUP4 DUP4 PUSH2 0xB03 JUMP JUMPDEST PUSH1 0x0 DUP3 MSTORE PUSH1 0x0 SWAP4 PUSH2 0x554 JUMPI JUMPDEST PUSH1 0x40 MLOAD SWAP1 PUSH2 0x2DC DUP3 PUSH2 0xAE7 JUMP JUMPDEST DUP1 DUP3 MSTORE DUP4 DUP3 ADD SWAP6 DUP7 MSTORE PUSH1 0x40 DUP3 ADD SWAP3 DUP4 MSTORE DUP5 MSTORE PUSH1 0x6 DUP4 MSTORE PUSH1 0x40 DUP5 KECCAK256 SWAP1 MLOAD DUP2 SSTORE PUSH1 0x1 DUP2 ADD SWAP5 MLOAD SWAP5 DUP6 MLOAD PUSH8 0xFFFFFFFFFFFFFFFF DUP2 GT PUSH2 0x540 JUMPI PUSH2 0x31C DUP3 SLOAD PUSH2 0xAAD JUMP JUMPDEST PUSH1 0x1F DUP2 GT PUSH2 0x507 JUMPI JUMPDEST POP DUP5 PUSH1 0x1F DUP3 GT PUSH1 0x1 EQ PUSH2 0x4A1 JUMPI SWAP1 DUP1 PUSH2 0x35A SWAP3 DUP9 SWAP10 PUSH1 0x2 SWAP8 SWAP9 SWAP10 SWAP3 PUSH2 0x496 JUMPI JUMPDEST POP POP DUP2 PUSH1 0x1 SHL SWAP2 PUSH1 0x0 NOT SWAP1 PUSH1 0x3 SHL SHR NOT AND OR SWAP1 JUMP JUMPDEST SWAP1 SSTORE JUMPDEST ADD SWAP1 MLOAD SWAP2 DUP3 MLOAD SWAP3 PUSH1 0x1 PUSH1 0x40 SHL DUP5 GT PUSH2 0x482 JUMPI DUP2 SWAP1 DUP4 SLOAD DUP6 DUP6 SSTORE DUP1 DUP7 LT PUSH2 0x3B1 JUMPI JUMPDEST POP ADD SWAP2 DUP5 MSTORE DUP1 DUP5 KECCAK256 DUP5 SWAP3 JUMPDEST DUP5 DUP5 LT PUSH2 0x394 JUMPI DUP6 DUP1 RETURN JUMPDEST PUSH1 0x3 DUP4 DUP3 PUSH2 0x3A5 PUSH1 0x1 SWAP5 MLOAD DUP7 PUSH2 0xD0D JUMP JUMPDEST ADD SWAP3 ADD SWAP4 ADD SWAP3 SWAP1 PUSH2 0x389 JUMP JUMPDEST DUP1 SWAP2 SWAP3 POP PUSH1 0x3 MUL SWAP1 PUSH1 0x3 DUP3 DIV SUB PUSH2 0x46E JUMPI DUP5 PUSH1 0x3 MUL PUSH1 0x3 DUP2 DIV DUP7 SUB PUSH2 0x45A JUMPI DUP5 DUP8 MSTORE DUP4 DUP8 KECCAK256 DUP5 SWAP4 SWAP3 DUP2 ADD SWAP2 ADD JUMPDEST DUP2 DUP2 LT PUSH2 0x3EB JUMPI POP PUSH2 0x37E JUMP JUMPDEST PUSH1 0x3 SWAP2 SWAP3 SWAP4 POP DUP8 DUP2 SSTORE DUP8 PUSH1 0x1 DUP3 ADD PUSH2 0x403 DUP2 SLOAD PUSH2 0xAAD JUMP JUMPDEST DUP1 PUSH2 0x41A JUMPI JUMPDEST POP POP PUSH1 0x2 DUP3 ADD SSTORE ADD SWAP1 DUP4 SWAP3 SWAP2 PUSH2 0x3DE JUMP JUMPDEST PUSH1 0x1F DUP2 GT PUSH1 0x1 EQ PUSH2 0x430 JUMPI POP SSTORE JUMPDEST DUP8 DUP10 DUP1 PUSH2 0x409 JUMP JUMPDEST DUP2 DUP4 MSTORE DUP8 DUP4 KECCAK256 PUSH2 0x44B SWAP2 PUSH1 0x1F ADD PUSH1 0x5 SHR DUP2 ADD SWAP1 PUSH1 0x1 ADD PUSH2 0xCF6 JUMP JUMPDEST DUP1 DUP3 MSTORE DUP2 DUP8 DUP2 KECCAK256 SWAP2 SSTORE SSTORE PUSH2 0x428 JUMP JUMPDEST PUSH4 0x4E487B71 PUSH1 0xE0 SHL DUP8 MSTORE PUSH1 0x11 PUSH1 0x4 MSTORE PUSH1 0x24 DUP8 REVERT JUMPDEST PUSH4 0x4E487B71 PUSH1 0xE0 SHL DUP7 MSTORE PUSH1 0x11 PUSH1 0x4 MSTORE PUSH1 0x24 DUP7 REVERT JUMPDEST PUSH4 0x4E487B71 PUSH1 0xE0 SHL DUP6 MSTORE PUSH1 0x41 PUSH1 0x4 MSTORE PUSH1 0x24 DUP6 REVERT JUMPDEST ADD MLOAD SWAP1 POP DUP10 DUP1 PUSH2 0x345 JUMP JUMPDEST DUP3 DUP8 MSTORE DUP6 DUP8 KECCAK256 SWAP8 PUSH1 0x1F NOT DUP4 AND DUP9 JUMPDEST DUP2 DUP2 LT PUSH2 0x4F0 JUMPI POP SWAP2 PUSH1 0x2 SWAP7 SWAP8 SWAP9 SWAP10 SWAP2 DUP5 PUSH1 0x1 SWAP6 SWAP5 LT PUSH2 0x4D7 JUMPI JUMPDEST POP POP POP DUP2 SHL ADD SWAP1 SSTORE PUSH2 0x35D JUMP JUMPDEST ADD MLOAD PUSH1 0x0 NOT PUSH1 0xF8 DUP5 PUSH1 0x3 SHL AND SHR NOT AND SWAP1 SSTORE DUP9 DUP1 DUP1 PUSH2 0x4CA JUMP JUMPDEST DUP4 DUP4 ADD MLOAD DUP12 SSTORE PUSH1 0x1 SWAP1 SWAP11 ADD SWAP10 SWAP3 DUP9 ADD SWAP3 DUP9 ADD PUSH2 0x4AF JUMP JUMPDEST PUSH2 0x530 SWAP1 DUP4 DUP9 MSTORE DUP7 DUP9 KECCAK256 PUSH1 0x1F DUP5 ADD PUSH1 0x5 SHR DUP2 ADD SWAP2 DUP9 DUP6 LT PUSH2 0x536 JUMPI JUMPDEST PUSH1 0x1F ADD PUSH1 0x5 SHR ADD SWAP1 PUSH2 0xCF6 JUMP JUMPDEST DUP8 PUSH2 0x325 JUMP JUMPDEST SWAP1 SWAP2 POP DUP2 SWAP1 PUSH2 0x523 JUMP JUMPDEST PUSH4 0x4E487B71 PUSH1 0xE0 SHL DUP7 MSTORE PUSH1 0x41 PUSH1 0x4 MSTORE PUSH1 0x24 DUP7 REVERT JUMPDEST PUSH2 0x2CF JUMP JUMPDEST CALLVALUE PUSH2 0xE2 JUMPI PUSH1 0x60 CALLDATASIZE PUSH1 0x3 NOT ADD SLT PUSH2 0xE2 JUMPI PUSH1 0x44 CALLDATALOAD PUSH8 0xFFFFFFFFFFFFFFFF DUP2 GT PUSH2 0xE2 JUMPI PUSH2 0x58A SWAP1 CALLDATASIZE SWAP1 PUSH1 0x4 ADD PUSH2 0xB66 JUMP JUMPDEST PUSH2 0x59F PUSH1 0x1 DUP1 PUSH1 0xA0 SHL SUB PUSH1 0x0 SLOAD AND CALLER EQ PUSH2 0xBEF JUMP JUMPDEST PUSH1 0x4 CALLDATALOAD PUSH1 0x0 MSTORE PUSH1 0x6 PUSH1 0x20 MSTORE PUSH1 0x2 PUSH1 0x40 PUSH1 0x0 KECCAK256 ADD PUSH1 0x40 MLOAD SWAP2 PUSH2 0x5BF DUP4 PUSH2 0xAE7 JUMP JUMPDEST PUSH1 0x24 CALLDATALOAD DUP4 MSTORE PUSH1 0x20 DUP4 ADD MSTORE PUSH1 0x0 PUSH1 0x40 DUP4 ADD MSTORE DUP1 SLOAD PUSH1 0x1 PUSH1 0x40 SHL DUP2 LT ISZERO PUSH2 0x615 JUMPI PUSH2 0x5ED SWAP2 PUSH1 0x1 DUP3 ADD DUP2 SSTORE PUSH2 0xBBD JUMP JUMPDEST SWAP2 SWAP1 SWAP2 PUSH2 0x5FF JUMPI PUSH2 0x5FD SWAP2 PUSH2 0xD0D JUMP JUMPDEST STOP JUMPDEST PUSH4 0x4E487B71 PUSH1 0xE0 SHL PUSH1 0x0 MSTORE PUSH1 0x0 PUSH1 0x4 MSTORE PUSH1 0x24 PUSH1 0x0 REVERT JUMPDEST PUSH4 0x4E487B71 PUSH1 0xE0 SHL PUSH1 0x0 MSTORE PUSH1 0x41 PUSH1 0x4 MSTORE PUSH1 0x24 PUSH1 0x0 REVERT JUMPDEST CALLVALUE PUSH2 0xE2 JUMPI PUSH1 0x20 CALLDATASIZE PUSH1 0x3 NOT ADD SLT PUSH2 0xE2 JUMPI PUSH1 0x4 CALLDATALOAD PUSH1 0x0 MSTORE PUSH1 0x6 PUSH1 0x20 MSTORE PUSH1 0x40 PUSH1 0x0 KECCAK256 PUSH1 0x1 DUP2 SLOAD SWAP2 ADD SWAP1 PUSH1 0x40 MLOAD SWAP2 DUP3 PUSH1 0x0 DUP3 SLOAD SWAP3 PUSH2 0x666 DUP5 PUSH2 0xAAD JUMP JUMPDEST DUP1 DUP5 MSTORE SWAP4 PUSH1 0x1 DUP2 AND SWAP1 DUP2 ISZERO PUSH2 0x6F2 JUMPI POP PUSH1 0x1 EQ PUSH2 0x6AB JUMPI JUMPDEST POP PUSH2 0x68B SWAP3 POP SUB DUP4 PUSH2 0xB03 JUMP JUMPDEST PUSH2 0x6A7 PUSH1 0x40 MLOAD SWAP3 DUP4 SWAP3 DUP4 MSTORE PUSH1 0x40 PUSH1 0x20 DUP5 ADD MSTORE PUSH1 0x40 DUP4 ADD SWAP1 PUSH2 0xB25 JUMP JUMPDEST SUB SWAP1 RETURN JUMPDEST SWAP1 POP PUSH1 0x0 SWAP3 SWAP2 SWAP3 MSTORE PUSH1 0x20 PUSH1 0x0 KECCAK256 SWAP1 PUSH1 0x0 SWAP2 JUMPDEST DUP2 DUP4 LT PUSH2 0x6D6 JUMPI POP POP SWAP1 PUSH1 0x20 PUSH2 0x68B SWAP3 DUP3 ADD ADD DUP6 PUSH2 0x67E JUMP JUMPDEST PUSH1 0x20 SWAP2 SWAP4 POP DUP1 PUSH1 0x1 SWAP2 SLOAD DUP4 DUP6 DUP10 ADD ADD MSTORE ADD SWAP2 ADD SWAP1 SWAP2 DUP5 SWAP3 PUSH2 0x6BD JUMP JUMPDEST SWAP1 POP PUSH1 0x20 SWAP3 POP PUSH2 0x68B SWAP5 SWAP2 POP PUSH1 0xFF NOT AND DUP3 DUP5 ADD MSTORE ISZERO ISZERO PUSH1 0x5 SHL DUP3 ADD ADD DUP6 PUSH2 0x67E JUMP JUMPDEST CALLVALUE PUSH2 0xE2 JUMPI PUSH1 0x0 CALLDATASIZE PUSH1 0x3 NOT ADD SLT PUSH2 0xE2 JUMPI PUSH1 0x40 MLOAD PUSH1 0x0 PUSH1 0x2 SLOAD PUSH2 0x736 DUP2 PUSH2 0xAAD JUMP JUMPDEST DUP1 DUP5 MSTORE SWAP1 PUSH1 0x1 DUP2 AND SWAP1 DUP2 ISZERO PUSH2 0x7D1 JUMPI POP PUSH1 0x1 EQ PUSH2 0x772 JUMPI JUMPDEST PUSH2 0x6A7 DUP4 PUSH2 0x75E DUP2 DUP6 SUB DUP3 PUSH2 0xB03 JUMP JUMPDEST PUSH1 0x40 MLOAD SWAP2 DUP3 SWAP2 PUSH1 0x20 DUP4 MSTORE PUSH1 0x20 DUP4 ADD SWAP1 PUSH2 0xB25 JUMP JUMPDEST PUSH1 0x2 PUSH1 0x0 SWAP1 DUP2 MSTORE PUSH32 0x405787FA12A823E0F2B7631CC41B3BA8828B3321CA811111FA75CD3AA3BB5ACE SWAP4 SWAP3 POP SWAP1 JUMPDEST DUP1 DUP3 LT PUSH2 0x7B7 JUMPI POP SWAP1 SWAP2 POP DUP2 ADD PUSH1 0x20 ADD PUSH2 0x75E PUSH2 0x74E JUMP JUMPDEST SWAP2 SWAP3 PUSH1 0x1 DUP2 PUSH1 0x20 SWAP3 SLOAD DUP4 DUP6 DUP9 ADD ADD MSTORE ADD SWAP2 ADD SWAP1 SWAP3 SWAP2 PUSH2 0x79F JUMP JUMPDEST PUSH1 0xFF NOT AND PUSH1 0x20 DUP1 DUP7 ADD SWAP2 SWAP1 SWAP2 MSTORE SWAP2 ISZERO ISZERO PUSH1 0x5 SHL DUP5 ADD SWAP1 SWAP2 ADD SWAP2 POP PUSH2 0x75E SWAP1 POP PUSH2 0x74E JUMP JUMPDEST CALLVALUE PUSH2 0xE2 JUMPI PUSH1 0x0 CALLDATASIZE PUSH1 0x3 NOT ADD SLT PUSH2 0xE2 JUMPI PUSH2 0x81B PUSH1 0x1 DUP1 PUSH1 0xA0 SHL SUB PUSH1 0x0 SLOAD AND CALLER EQ PUSH2 0xBEF JUMP JUMPDEST PUSH1 0x3 SLOAD DUP1 TIMESTAMP LT PUSH2 0x868 JUMPI PUSH2 0x863 PUSH32 0x627FEDC2C091C67F445C74DAFA73901E80B09B2F142B1FC11FE75960202B41FD SWAP2 PUSH1 0x1 PUSH1 0xFF NOT PUSH1 0x5 SLOAD AND OR PUSH1 0x5 SSTORE PUSH1 0x40 MLOAD SWAP2 DUP3 SWAP2 DUP3 PUSH2 0xC46 JUMP JUMPDEST SUB SWAP1 LOG1 STOP JUMPDEST PUSH1 0x40 MLOAD PUSH3 0x461BCD PUSH1 0xE5 SHL DUP2 MSTORE PUSH1 0x20 PUSH1 0x4 DUP3 ADD MSTORE PUSH1 0x1F PUSH1 0x24 DUP3 ADD MSTORE PUSH32 0x456C656374696F6E2073746172742064617465206E6F74207265616368656400 PUSH1 0x44 DUP3 ADD MSTORE PUSH1 0x64 SWAP1 REVERT JUMPDEST CALLVALUE PUSH2 0xE2 JUMPI PUSH1 0x0 CALLDATASIZE PUSH1 0x3 NOT ADD SLT PUSH2 0xE2 JUMPI PUSH2 0x8D3 PUSH1 0x1 DUP1 PUSH1 0xA0 SHL SUB PUSH1 0x0 SLOAD AND CALLER EQ PUSH2 0xBEF JUMP JUMPDEST PUSH1 0x4 SLOAD DUP1 TIMESTAMP LT PUSH2 0x918 JUMPI PUSH2 0x863 PUSH32 0x4D31DB6748EDBBD9E5B81D507A6477BE9BDDC93567DC5E6FAC4E6BAE81F27FA5 SWAP2 PUSH1 0xFF NOT PUSH1 0x5 SLOAD AND PUSH1 0x5 SSTORE PUSH1 0x40 MLOAD SWAP2 DUP3 SWAP2 DUP3 PUSH2 0xC46 JUMP JUMPDEST PUSH1 0x40 MLOAD PUSH3 0x461BCD PUSH1 0xE5 SHL DUP2 MSTORE PUSH1 0x20 PUSH1 0x4 DUP3 ADD MSTORE PUSH1 0x1D PUSH1 0x24 DUP3 ADD MSTORE PUSH32 0x456C656374696F6E20656E642064617465206E6F742072656163686564000000 PUSH1 0x44 DUP3 ADD MSTORE PUSH1 0x64 SWAP1 REVERT JUMPDEST CALLVALUE PUSH2 0xE2 JUMPI PUSH1 0x0 CALLDATASIZE PUSH1 0x3 NOT ADD SLT PUSH2 0xE2 JUMPI PUSH1 0x40 MLOAD PUSH1 0x0 PUSH1 0x1 SLOAD PUSH2 0x97F DUP2 PUSH2 0xAAD JUMP JUMPDEST DUP1 DUP5 MSTORE SWAP1 PUSH1 0x1 DUP2 AND SWAP1 DUP2 ISZERO PUSH2 0x7D1 JUMPI POP PUSH1 0x1 EQ PUSH2 0x9A6 JUMPI PUSH2 0x6A7 DUP4 PUSH2 0x75E DUP2 DUP6 SUB DUP3 PUSH2 0xB03 JUMP JUMPDEST PUSH1 0x1 PUSH1 0x0 SWAP1 DUP2 MSTORE PUSH32 0xB10E2D527612073B26EECDFD717E6A320CF44B4AFAC2B0732D9FCBE2B7FA0CF6 SWAP4 SWAP3 POP SWAP1 JUMPDEST DUP1 DUP3 LT PUSH2 0x9EB JUMPI POP SWAP1 SWAP2 POP DUP2 ADD PUSH1 0x20 ADD PUSH2 0x75E PUSH2 0x74E JUMP JUMPDEST SWAP2 SWAP3 PUSH1 0x1 DUP2 PUSH1 0x20 SWAP3 SLOAD DUP4 DUP6 DUP9 ADD ADD MSTORE ADD SWAP2 ADD SWAP1 SWAP3 SWAP2 PUSH2 0x9D3 JUMP JUMPDEST CALLVALUE PUSH2 0xE2 JUMPI PUSH1 0x20 PUSH1 0x2 PUSH2 0xA2E PUSH2 0xA1A CALLDATASIZE PUSH2 0xA97 JUMP JUMPDEST SWAP1 PUSH1 0x0 MSTORE PUSH1 0x6 DUP5 MSTORE DUP3 PUSH1 0x40 PUSH1 0x0 KECCAK256 ADD PUSH2 0xBBD JUMP JUMPDEST POP ADD SLOAD PUSH1 0x40 MLOAD SWAP1 DUP2 MSTORE RETURN JUMPDEST CALLVALUE PUSH2 0xE2 JUMPI PUSH1 0x0 CALLDATASIZE PUSH1 0x3 NOT ADD SLT PUSH2 0xE2 JUMPI PUSH1 0x20 PUSH1 0x3 SLOAD PUSH1 0x40 MLOAD SWAP1 DUP2 MSTORE RETURN JUMPDEST CALLVALUE PUSH2 0xE2 JUMPI PUSH1 0x20 CALLDATASIZE PUSH1 0x3 NOT ADD SLT PUSH2 0xE2 JUMPI PUSH1 0x4 CALLDATALOAD PUSH1 0x1 PUSH1 0x1 PUSH1 0xA0 SHL SUB DUP2 AND SWAP2 SWAP1 DUP3 SWAP1 SUB PUSH2 0xE2 JUMPI PUSH1 0x20 SWAP2 PUSH1 0x0 MSTORE PUSH1 0x7 DUP3 MSTORE PUSH1 0xFF PUSH1 0x40 PUSH1 0x0 KECCAK256 SLOAD AND ISZERO ISZERO DUP2 MSTORE RETURN JUMPDEST PUSH1 0x40 SWAP1 PUSH1 0x3 NOT ADD SLT PUSH2 0xE2 JUMPI PUSH1 0x4 CALLDATALOAD SWAP1 PUSH1 0x24 CALLDATALOAD SWAP1 JUMP JUMPDEST SWAP1 PUSH1 0x1 DUP3 DUP2 SHR SWAP3 AND DUP1 ISZERO PUSH2 0xADD JUMPI JUMPDEST PUSH1 0x20 DUP4 LT EQ PUSH2 0xAC7 JUMPI JUMP JUMPDEST PUSH4 0x4E487B71 PUSH1 0xE0 SHL PUSH1 0x0 MSTORE PUSH1 0x22 PUSH1 0x4 MSTORE PUSH1 0x24 PUSH1 0x0 REVERT JUMPDEST SWAP2 PUSH1 0x7F AND SWAP2 PUSH2 0xABC JUMP JUMPDEST PUSH1 0x60 DUP2 ADD SWAP1 DUP2 LT PUSH8 0xFFFFFFFFFFFFFFFF DUP3 GT OR PUSH2 0x615 JUMPI PUSH1 0x40 MSTORE JUMP JUMPDEST SWAP1 PUSH1 0x1F DUP1 NOT SWAP2 ADD AND DUP2 ADD SWAP1 DUP2 LT PUSH8 0xFFFFFFFFFFFFFFFF DUP3 GT OR PUSH2 0x615 JUMPI PUSH1 0x40 MSTORE JUMP JUMPDEST SWAP2 SWAP1 DUP3 MLOAD SWAP3 DUP4 DUP3 MSTORE PUSH1 0x0 JUMPDEST DUP5 DUP2 LT PUSH2 0xB51 JUMPI POP POP DUP3 PUSH1 0x0 PUSH1 0x20 DUP1 SWAP5 SWAP6 DUP5 ADD ADD MSTORE PUSH1 0x1F DUP1 NOT SWAP2 ADD AND ADD ADD SWAP1 JUMP JUMPDEST DUP1 PUSH1 0x20 DUP1 SWAP3 DUP5 ADD ADD MLOAD DUP3 DUP3 DUP7 ADD ADD MSTORE ADD PUSH2 0xB30 JUMP JUMPDEST DUP2 PUSH1 0x1F DUP3 ADD SLT ISZERO PUSH2 0xE2 JUMPI DUP1 CALLDATALOAD SWAP1 PUSH8 0xFFFFFFFFFFFFFFFF DUP3 GT PUSH2 0x615 JUMPI PUSH1 0x40 MLOAD SWAP3 PUSH2 0xB9B PUSH1 0x1F DUP5 ADD PUSH1 0x1F NOT AND PUSH1 0x20 ADD DUP6 PUSH2 0xB03 JUMP JUMPDEST DUP3 DUP5 MSTORE PUSH1 0x20 DUP4 DUP4 ADD ADD GT PUSH2 0xE2 JUMPI DUP2 PUSH1 0x0 SWAP3 PUSH1 0x20 DUP1 SWAP4 ADD DUP4 DUP7 ADD CALLDATACOPY DUP4 ADD ADD MSTORE SWAP1 JUMP JUMPDEST DUP1 SLOAD DUP3 LT ISZERO PUSH2 0xBD9 JUMPI PUSH1 0x0 MSTORE PUSH1 0x3 PUSH1 0x20 PUSH1 0x0 KECCAK256 SWAP2 MUL ADD SWAP1 PUSH1 0x0 SWAP1 JUMP JUMPDEST PUSH4 0x4E487B71 PUSH1 0xE0 SHL PUSH1 0x0 MSTORE PUSH1 0x32 PUSH1 0x4 MSTORE PUSH1 0x24 PUSH1 0x0 REVERT JUMPDEST ISZERO PUSH2 0xBF6 JUMPI JUMP JUMPDEST PUSH1 0x40 MLOAD PUSH3 0x461BCD PUSH1 0xE5 SHL DUP2 MSTORE PUSH1 0x20 PUSH1 0x4 DUP3 ADD MSTORE PUSH1 0x22 PUSH1 0x24 DUP3 ADD MSTORE PUSH32 0x4F6E6C792061646D696E2063616E20706572666F726D20746869732061637469 PUSH1 0x44 DUP3 ADD MSTORE PUSH2 0x37B7 PUSH1 0xF1 SHL PUSH1 0x64 DUP3 ADD MSTORE PUSH1 0x84 SWAP1 REVERT JUMPDEST SWAP2 SWAP1 PUSH1 0x40 DUP4 MSTORE PUSH1 0x0 PUSH1 0x1 SLOAD SWAP1 PUSH2 0xC5B DUP3 PUSH2 0xAAD JUMP JUMPDEST SWAP2 DUP3 PUSH1 0x40 DUP8 ADD MSTORE PUSH1 0x1 DUP2 AND SWAP1 DUP2 PUSH1 0x0 EQ PUSH2 0xCD8 JUMPI POP PUSH1 0x1 EQ PUSH2 0xC81 JUMPI JUMPDEST PUSH1 0x20 SWAP2 POP SWAP4 ADD MSTORE JUMP JUMPDEST POP PUSH1 0x1 PUSH1 0x0 SWAP1 DUP2 MSTORE PUSH32 0xB10E2D527612073B26EECDFD717E6A320CF44B4AFAC2B0732D9FCBE2B7FA0CF6 JUMPDEST DUP3 DUP3 LT PUSH2 0xCC1 JUMPI POP PUSH1 0x20 SWAP2 POP DUP5 ADD PUSH1 0x60 ADD PUSH2 0xC78 JUMP JUMPDEST PUSH1 0x1 DUP2 PUSH1 0x20 SWAP3 SLOAD PUSH1 0x60 DUP6 DUP11 ADD ADD MSTORE ADD SWAP2 ADD SWAP1 PUSH2 0xCAB JUMP JUMPDEST PUSH1 0x60 SWAP3 POP PUSH1 0x20 SWAP4 SWAP2 POP PUSH1 0xFF NOT AND DUP3 DUP8 ADD MSTORE ISZERO ISZERO PUSH1 0x5 SHL DUP6 ADD ADD PUSH2 0xC78 JUMP JUMPDEST DUP2 DUP2 LT PUSH2 0xD01 JUMPI POP POP JUMP JUMPDEST PUSH1 0x0 DUP2 SSTORE PUSH1 0x1 ADD PUSH2 0xCF6 JUMP JUMPDEST SWAP1 DUP1 MLOAD DUP3 SSTORE PUSH1 0x1 DUP3 ADD PUSH1 0x20 DUP3 ADD MLOAD DUP1 MLOAD SWAP1 PUSH8 0xFFFFFFFFFFFFFFFF DUP3 GT PUSH2 0x615 JUMPI PUSH2 0xD37 DUP4 SLOAD PUSH2 0xAAD JUMP JUMPDEST PUSH1 0x1F DUP2 GT PUSH2 0xDFA JUMPI JUMPDEST POP PUSH1 0x20 SWAP1 PUSH1 0x1F DUP4 GT PUSH1 0x1 EQ PUSH2 0xD8D JUMPI DUP3 PUSH1 0x2 SWAP6 SWAP4 PUSH1 0x40 SWAP6 SWAP4 PUSH2 0xD78 SWAP4 PUSH1 0x0 SWAP3 PUSH2 0xD82 JUMPI POP POP DUP2 PUSH1 0x1 SHL SWAP2 PUSH1 0x0 NOT SWAP1 PUSH1 0x3 SHL SHR NOT AND OR SWAP1 JUMP JUMPDEST SWAP1 SSTORE JUMPDEST ADD MLOAD SWAP2 ADD SSTORE JUMP JUMPDEST ADD MLOAD SWAP1 POP CODESIZE DUP1 PUSH2 0x345 JUMP JUMPDEST SWAP1 PUSH1 0x1F NOT DUP4 AND SWAP2 DUP5 PUSH1 0x0 MSTORE DUP2 PUSH1 0x0 KECCAK256 SWAP3 PUSH1 0x0 JUMPDEST DUP2 DUP2 LT PUSH2 0xDE2 JUMPI POP SWAP3 PUSH1 0x1 SWAP3 DUP6 SWAP3 PUSH1 0x2 SWAP9 SWAP7 PUSH1 0x40 SWAP9 SWAP7 LT PUSH2 0xDC9 JUMPI JUMPDEST POP POP POP DUP2 SHL ADD SWAP1 SSTORE PUSH2 0xD7B JUMP JUMPDEST ADD MLOAD PUSH1 0x0 NOT PUSH1 0xF8 DUP5 PUSH1 0x3 SHL AND SHR NOT AND SWAP1 SSTORE CODESIZE DUP1 DUP1 PUSH2 0xDBC JUMP JUMPDEST SWAP3 SWAP4 PUSH1 0x20 PUSH1 0x1 DUP2 SWAP3 DUP8 DUP7 ADD MLOAD DUP2 SSTORE ADD SWAP6 ADD SWAP4 ADD PUSH2 0xDA0 JUMP JUMPDEST PUSH2 0xE26 SWAP1 DUP5 PUSH1 0x0 MSTORE PUSH1 0x20 PUSH1 0x0 KECCAK256 PUSH1 0x1F DUP6 ADD PUSH1 0x5 SHR DUP2 ADD SWAP2 PUSH1 0x20 DUP7 LT PUSH2 0x536 JUMPI PUSH1 0x1F ADD PUSH1 0x5 SHR ADD SWAP1 PUSH2 0xCF6 JUMP JUMPDEST CODESIZE PUSH2 0xD40 JUMP INVALID LOG2 PUSH5 0x6970667358 0x22 SLT KECCAK256 0xF8 SWAP7 DUP16 STATICCALL GAS 0x4C CALLVALUE PUSH32 0xB27A4D63E8CDF0F8C678DB97FE26DEC9A3691EFF642D5C6B64736F6C63430008 SHR STOP CALLER "},"methodIdentifiers":{"addCandidate(uint256,uint256,string)":"a958f1aa","addPosition(uint256,string)":"b0a5df6e","admin()":"f851a440","description()":"7284e416","endDate()":"c24a0f8b","endElection()":"59f78468","getCandidateVotes(uint256,uint256)":"112d26a9","hasVoted(address)":"09eef43e","isLive()":"b8f7a665","positions(uint256)":"99fbab88","startDate()":"0b97bc86","startElection()":"62d73eb8","title()":"4a79d50c","vote(uint256,uint256)":"b384abef"}}}}}