{
  "_format": "hh-sol-artifact-1",
  "contractName": "ElectionContract",
  "sourceName": "contracts/elections.sol",
  "abi": [
    {
      "inputs": [],
      "stateMutability": "nonpayable",
      "type": "constructor"
    },
    {
      "anonymous": false,
      "inputs": [
        {
          "indexed": false,
          "internalType": "address",
          "name": "admin",
          "type": "address"
        }
      ],
      "name": "AdminAdded",
      "type": "event"
    },
    {
      "anonymous": false,
      "inputs": [
        {
          "indexed": false,
          "internalType": "address",
          "name": "admin",
          "type": "address"
        }
      ],
      "name": "AdminRemoved",
      "type": "event"
    },
    {
      "anonymous": false,
      "inputs": [
        {
          "indexed": false,
          "internalType": "string",
          "name": "electionId",
          "type": "string"
        }
      ],
      "name": "ElectionArchived",
      "type": "event"
    },
    {
      "anonymous": false,
      "inputs": [
        {
          "indexed": false,
          "internalType": "string",
          "name": "electionId",
          "type": "string"
        },
        {
          "indexed": false,
          "internalType": "string",
          "name": "name",
          "type": "string"
        },
        {
          "indexed": false,
          "internalType": "address",
          "name": "creator",
          "type": "address"
        }
      ],
      "name": "ElectionCreated",
      "type": "event"
    },
    {
      "anonymous": false,
      "inputs": [
        {
          "indexed": false,
          "internalType": "string",
          "name": "electionId",
          "type": "string"
        },
        {
          "indexed": false,
          "internalType": "bool",
          "name": "isLive",
          "type": "bool"
        }
      ],
      "name": "ElectionStatusUpdated",
      "type": "event"
    },
    {
      "anonymous": false,
      "inputs": [
        {
          "indexed": false,
          "internalType": "address",
          "name": "previousOwner",
          "type": "address"
        },
        {
          "indexed": false,
          "internalType": "address",
          "name": "newOwner",
          "type": "address"
        }
      ],
      "name": "OwnershipTransferred",
      "type": "event"
    },
    {
      "anonymous": false,
      "inputs": [
        {
          "indexed": false,
          "internalType": "address",
          "name": "voter",
          "type": "address"
        },
        {
          "indexed": false,
          "internalType": "string",
          "name": "electionId",
          "type": "string"
        },
        {
          "indexed": false,
          "internalType": "string[]",
          "name": "positionIds",
          "type": "string[]"
        }
      ],
      "name": "Voted",
      "type": "event"
    },
    {
      "inputs": [
        {
          "internalType": "address",
          "name": "admin",
          "type": "address"
        }
      ],
      "name": "addAdmin",
      "outputs": [],
      "stateMutability": "nonpayable",
      "type": "function"
    },
    {
      "inputs": [
        {
          "internalType": "uint256",
          "name": "",
          "type": "uint256"
        }
      ],
      "name": "admins",
      "outputs": [
        {
          "internalType": "address",
          "name": "",
          "type": "address"
        }
      ],
      "stateMutability": "view",
      "type": "function"
    },
    {
      "inputs": [
        {
          "internalType": "string",
          "name": "electionId",
          "type": "string"
        }
      ],
      "name": "archiveElection",
      "outputs": [],
      "stateMutability": "nonpayable",
      "type": "function"
    },
    {
      "inputs": [
        {
          "internalType": "string",
          "name": "electionId",
          "type": "string"
        },
        {
          "internalType": "string",
          "name": "name",
          "type": "string"
        },
        {
          "internalType": "string[]",
          "name": "positionIds",
          "type": "string[]"
        },
        {
          "internalType": "string[]",
          "name": "positionNames",
          "type": "string[]"
        },
        {
          "internalType": "string[][]",
          "name": "candidateIds",
          "type": "string[][]"
        },
        {
          "internalType": "string[][]",
          "name": "candidateNames",
          "type": "string[][]"
        }
      ],
      "name": "createElection",
      "outputs": [],
      "stateMutability": "nonpayable",
      "type": "function"
    },
    {
      "inputs": [
        {
          "internalType": "uint256",
          "name": "",
          "type": "uint256"
        }
      ],
      "name": "electionIds",
      "outputs": [
        {
          "internalType": "string",
          "name": "",
          "type": "string"
        }
      ],
      "stateMutability": "view",
      "type": "function"
    },
    {
      "inputs": [
        {
          "internalType": "string",
          "name": "",
          "type": "string"
        }
      ],
      "name": "elections",
      "outputs": [
        {
          "internalType": "string",
          "name": "id",
          "type": "string"
        },
        {
          "internalType": "string",
          "name": "name",
          "type": "string"
        },
        {
          "internalType": "bool",
          "name": "isLive",
          "type": "bool"
        },
        {
          "internalType": "bool",
          "name": "isArchived",
          "type": "bool"
        },
        {
          "internalType": "uint256",
          "name": "createdAt",
          "type": "uint256"
        }
      ],
      "stateMutability": "view",
      "type": "function"
    },
    {
      "inputs": [],
      "name": "getActiveElectionIds",
      "outputs": [
        {
          "internalType": "string[]",
          "name": "",
          "type": "string[]"
        }
      ],
      "stateMutability": "view",
      "type": "function"
    },
    {
      "inputs": [],
      "name": "getAdmins",
      "outputs": [
        {
          "internalType": "address[]",
          "name": "",
          "type": "address[]"
        }
      ],
      "stateMutability": "view",
      "type": "function"
    },
    {
      "inputs": [],
      "name": "getAllElectionIds",
      "outputs": [
        {
          "internalType": "string[]",
          "name": "",
          "type": "string[]"
        }
      ],
      "stateMutability": "view",
      "type": "function"
    },
    {
      "inputs": [
        {
          "internalType": "string",
          "name": "electionId",
          "type": "string"
        }
      ],
      "name": "getElection",
      "outputs": [
        {
          "internalType": "string",
          "name": "id",
          "type": "string"
        },
        {
          "internalType": "string",
          "name": "name",
          "type": "string"
        },
        {
          "internalType": "bool",
          "name": "isLive",
          "type": "bool"
        },
        {
          "internalType": "bool",
          "name": "isArchived",
          "type": "bool"
        },
        {
          "internalType": "uint256",
          "name": "createdAt",
          "type": "uint256"
        },
        {
          "components": [
            {
              "internalType": "string",
              "name": "id",
              "type": "string"
            },
            {
              "internalType": "string",
              "name": "name",
              "type": "string"
            },
            {
              "components": [
                {
                  "internalType": "string",
                  "name": "id",
                  "type": "string"
                },
                {
                  "internalType": "string",
                  "name": "name",
                  "type": "string"
                },
                {
                  "internalType": "uint256",
                  "name": "voteCount",
                  "type": "uint256"
                }
              ],
              "internalType": "struct ElectionContract.Candidate[]",
              "name": "candidates",
              "type": "tuple[]"
            }
          ],
          "internalType": "struct ElectionContract.Position[]",
          "name": "positions",
          "type": "tuple[]"
        }
      ],
      "stateMutability": "view",
      "type": "function"
    },
    {
      "inputs": [
        {
          "internalType": "string",
          "name": "electionId",
          "type": "string"
        },
        {
          "internalType": "address",
          "name": "user",
          "type": "address"
        }
      ],
      "name": "hasUserVoted",
      "outputs": [
        {
          "internalType": "bool",
          "name": "",
          "type": "bool"
        }
      ],
      "stateMutability": "view",
      "type": "function"
    },
    {
      "inputs": [
        {
          "internalType": "address",
          "name": "",
          "type": "address"
        },
        {
          "internalType": "string",
          "name": "",
          "type": "string"
        }
      ],
      "name": "hasVoted",
      "outputs": [
        {
          "internalType": "bool",
          "name": "",
          "type": "bool"
        }
      ],
      "stateMutability": "view",
      "type": "function"
    },
    {
      "inputs": [
        {
          "internalType": "address",
          "name": "",
          "type": "address"
        }
      ],
      "name": "isAdmin",
      "outputs": [
        {
          "internalType": "bool",
          "name": "",
          "type": "bool"
        }
      ],
      "stateMutability": "view",
      "type": "function"
    },
    {
      "inputs": [],
      "name": "owner",
      "outputs": [
        {
          "internalType": "address",
          "name": "",
          "type": "address"
        }
      ],
      "stateMutability": "view",
      "type": "function"
    },
    {
      "inputs": [
        {
          "internalType": "address",
          "name": "admin",
          "type": "address"
        }
      ],
      "name": "removeAdmin",
      "outputs": [],
      "stateMutability": "nonpayable",
      "type": "function"
    },
    {
      "inputs": [
        {
          "internalType": "string",
          "name": "electionId",
          "type": "string"
        },
        {
          "internalType": "bool",
          "name": "status",
          "type": "bool"
        }
      ],
      "name": "toggleElectionStatus",
      "outputs": [],
      "stateMutability": "nonpayable",
      "type": "function"
    },
    {
      "inputs": [
        {
          "internalType": "address",
          "name": "newOwner",
          "type": "address"
        }
      ],
      "name": "transferOwnership",
      "outputs": [],
      "stateMutability": "nonpayable",
      "type": "function"
    },
    {
      "inputs": [
        {
          "internalType": "string",
          "name": "electionId",
          "type": "string"
        },
        {
          "internalType": "string[]",
          "name": "positionIds",
          "type": "string[]"
        },
        {
          "internalType": "string[]",
          "name": "candidateIds",
          "type": "string[]"
        }
      ],
      "name": "voteMultiple",
      "outputs": [],
      "stateMutability": "nonpayable",
      "type": "function"
    }
  ],
  "bytecode": "0x6080806040523460c457600080546001600160a01b0319163390811782558152600560205260409020805460ff19166001908117909155546801000000000000000081101560ae57600181018060015581101560985760016000527fb10e2d527612073b26eecdfd717e6a320cf44b4afac2b0732d9fcbe2b7fa0cf60180546001600160a01b0319163317905561200790816100ca8239f35b634e487b7160e01b600052603260045260246000fd5b634e487b7160e01b600052604160045260246000fd5b600080fdfe6080604052600436101561001257600080fd5b60003560e01c806302330a611461182757806310f28063146116e857806314bfd6d0146116a65780631785f53c1461147f57806324d7806c1461144057806331ae450b1461137457806341497385146113135780634771b5731461103c5780634a3ccc9614610f805780637048027514610ea05780638da5cb5b14610e77578063921ec12f14610d765780639b0b5985146108a35780639b96951d14610764578063c6847060146106f9578063dee40f741461065f578063e5de3eaa146101e45763f2fde38b146100e257600080fd5b346101df5760203660031901126101df577f8be0079c531659141344cd1fd0a4f28419497f9722a3daafe3b4186f6b6457e0604061011e611a79565b61013360018060a01b03600054163314611caf565b6001600160a01b03811690610149821515611d51565b81600052600560205260ff8360002054161561018f575b50600080546001600160a01b03198116831790915582516001600160a01b0390911681526020810191909152a1005b6101b09082600052600560205283600020600160ff19825416179055611d8f565b7f44d6d25963f097ad14f29f06854a01f575648a1ef82f30e562ccd3889717e33960208351838152a138610160565b600080fd5b346101df5760603660031901126101df576004356001600160401b0381116101df57610214903690600401611a8f565b6024356001600160401b0381116101df57610233903690600401611b22565b6044356001600160401b0381116101df57610252903690600401611b22565b604051610287610280855192602081818901956102708183896119d8565b81016003815203019020546118be565b1515611d05565b60ff6002604051602081885161029e8183896119d8565b8101600381520301902001541615610623576102e060ff600260405160208189516102ca81838a6119d8565b81016003815203019020015460081c1615611e67565b33600052600460205260ff6102f9604060002086611ae5565b54166105ee5782518251036105a95790610321602085936040518093819287519283916119d8565b8101600381520301902092600460009401905b805185101561053157600093845b8354811015610528576103558185611fb5565b506040516103798161036b602082018095611c1e565b03601f198101835282611913565b5190206103868885611c9b565b516040516103b5602082816103a481830196878151938492016119d8565b81010301601f198101835282611913565b519020146103c557600101610342565b90959194506001906000908282815b61047a575b50505015610436575b156103f1576001019392610334565b60405162461bcd60e51b815260206004820152601e60248201527f506f736974696f6e206e6f7420666f756e6420696e20656c656374696f6e00006044820152606490fd5b606460405162461bcd60e51b815260206004820152602060248201527f43616e646964617465206e6f7420666f756e6420666f7220706f736974696f6e6044820152fd5b60026104868489611fb5565b500154811015610523576104a78160026104a0868b611fb5565b5001611fb5565b506040516104bd8161036b602082018095611c1e565b5190206104ca878a611c9b565b516040516104e8602082816103a481830196878151938492016119d8565b519020146104f8578101816103d4565b905060028093506104a061050c9388611fb5565b50016105188154611c8c565b9055808782816103d9565b6103d9565b509490936103e2565b610596846105a47f7afa23c1292dc2543c3ea632824655ed222c5a9e5a4773bcd0ad2bc34f941b1593336000526004602052610571604060002084611ae5565b600160ff198254161790556040519384933385526060602086015260608501906119fb565b908382036040850152611a20565b0390a1005b60405162461bcd60e51b815260206004820152601860248201527f4d69736d617463686564206172726179206c656e6774687300000000000000006044820152606490fd5b60405162461bcd60e51b815260206004820152600d60248201526c105b1c9958591e481d9bdd1959609a1b6044820152606490fd5b60405162461bcd60e51b8152602060048201526014602482015273456c656374696f6e206973206e6f74206c69766560601b6044820152606490fd5b346101df5760003660031901126101df5760025461067c81611b0b565b9061068a6040519283611913565b8082526020820160026000527f405787fa12a823e0f2b7631cc41b3ba8828b3321ca811111fa75cd3aa3bb5ace6000915b8383106106dc57604051602080825281906106d890820188611a20565b0390f35b6001602081926106eb85611934565b8152019201920191906106bb565b346101df5760403660031901126101df57610712611a79565b602435906001600160401b0382116101df5761075860ff9161073a6020943690600401611a8f565b6001600160a01b039091166000908152600485526040902090611ae5565b54166040519015158152f35b346101df5760203660031901126101df576004356001600160401b0381116101df57610794903690600401611a8f565b3360005260056020526107ae60ff60406000205416611e11565b6040516107cc610280835192602081818701956102708183896119d8565b60ff600260405160208186516107e38183896119d8565b8101600381520301902001541661085e577fd957379e018d73b2da5e7482a4c88a0c4f2d197d05d0df37674e52e2a273465291600261083260206105a4946040518093819287519283916119d8565b810160038152030190200161010061ff00198254161790556040519182916020835260208301906119fb565b60405162461bcd60e51b815260206004820152601e60248201527f43616e6e6f7420617263686976652061206c69766520656c656374696f6e00006044820152606490fd5b346101df5760c03660031901126101df576004356001600160401b0381116101df576108d3903690600401611a8f565b6024356001600160401b0381116101df576108f2903690600401611a8f565b906044356001600160401b0381116101df57610912903690600401611b22565b906064356001600160401b0381116101df57610932903690600401611b22565b906084356001600160401b0381116101df57610952903690600401611ba0565b9160a4356001600160401b0381116101df57610972903690600401611ba0565b9433600052600560205261098d60ff60406000205416611e11565b6040516109a8845191602081818801946102708183886119d8565b610d31578551835103610cf3578551855103610ca2578551875103610c4b5760206109e39160409793959697518093819289519283916119d8565b81016003815203019020926109f88585611eaa565b610a058160018601611eaa565b60028401805461ffff19166001179055426003850155600093600401925b8251851015610bc4578354600160401b811015610b5857806001610a4a9201865585611fb5565b5093610a60610a598786611c9b565b5186611eaa565b610a77610a6d8784611c9b565b5160018701611eaa565b610a818689611c9b565b5151610a8d878b611c9b565b515103610b7f578860026000989601975b610aa8888b611c9b565b5151811015610b6e57610ad581610ac88a610ace838f83610ac891611c9b565b51611c9b565b5195611c9b565b5160405192610ae3846118f8565b8352602083019081526040830190600082528a54600160401b811015610b5857806001610b1392018d558c611fb5565b929092610b4257610b36600292610b2d6001975186611eaa565b51868501611eaa565b51910155018990610a9e565b634e487b7160e01b600052600060045260246000fd5b634e487b7160e01b600052604160045260246000fd5b509496506001909501949350610a23565b60405162461bcd60e51b815260206004820152601760248201527f43616e6469646174652064617461206d69736d617463680000000000000000006044820152606490fd5b8582600254600160401b811015610b5857806001610be59201600255611872565b929092610b4257610c40610c3292610c1e837f8fa439cf7090296b73eb06da904a8b179d6e9a0074f0bb318209e3b961ce2d5496611eaa565b6040519384936060855260608501906119fb565b9083820360208501526119fb565b3360408301520390a1005b60405162461bcd60e51b815260206004820152602960248201527f506f736974696f6e20616e642063616e646964617465206e616d652064617461604482015268040dad2e6dac2e8c6d60bb1b6064820152608490fd5b60405162461bcd60e51b8152602060048201526024808201527f506f736974696f6e20616e642063616e6469646174652064617461206d69736d6044820152630c2e8c6d60e31b6064820152608490fd5b60405162461bcd60e51b81526020600482015260166024820152750a0dee6d2e8d2dedc40c8c2e8c240dad2e6dac2e8c6d60531b6044820152606490fd5b60405162461bcd60e51b815260206004820152601760248201527f456c656374696f6e20616c7265616479206578697374730000000000000000006044820152606490fd5b346101df5760403660031901126101df576004356001600160401b0381116101df57610da6903690600401611a8f565b6024358015158091036101df577f7e64ddefc328088476333ae345c8484a8102e01ddfeffc0ab12120d413575b2b91610e6c91336000526005602052610df360ff60406000205416611e11565b6002610e406020604051610e176102808751928481818b01956102708183896119d8565b610e2f60ff8560405185818b516102ca81838a6119d8565b6040518093819288519283916119d8565b810160038152030190200160ff1981541660ff83161790556040519283926040845260408401906119fb565b9060208301520390a1005b346101df5760003660031901126101df576000546040516001600160a01b039091168152602090f35b346101df5760203660031901126101df57610eb9611a79565b610ece60018060a01b03600054163314611caf565b6001600160a01b03811690610ee4821515611d51565b81600052600560205260ff60406000205416610f485781610f3f6020927f44d6d25963f097ad14f29f06854a01f575648a1ef82f30e562ccd3889717e33994600052600584526040600020600160ff19825416179055611d8f565b604051908152a1005b60405162461bcd60e51b815260206004820152601060248201526f20b63932b0b23c9030b71030b236b4b760811b6044820152606490fd5b346101df5760203660031901126101df576004356001600160401b0381116101df57610fcb6020610fb861100f933690600401611a8f565b81604051938285809451938492016119d8565b81016003815203019020610fde81611934565b90610feb60018201611934565b60ff61101d600360028501549401549260405196879660a0885260a08801906119fb565b9086820360208801526119fb565b928181161515604086015260081c161515606084015260808301520390f35b346101df5760203660031901126101df576004356001600160401b0381116101df5760206110716110a0923690600401611a8f565b6040519061108f61028082519385818186019661027081838a6119d8565b6040519384928392519283916119d8565b81016003815203019020600281015490600381015460048201906110cf60016110c885611934565b9401611934565b908254916110dc83611b0b565b926110ea6040519485611913565b80845260208401809560005260206000206000915b83831061124d575050505061113360ff916111256040519760c0895260c08901906119fb565b9087820360208901526119fb565b958181161515604087015260081c1615156060850152608084015282840360a084015251808452602084019060208160051b86010192916000905b82821061117b5785850386f35b90919293601f19878203018252845160406111b46111a283516060865260608601906119fb565b602084015185820360208701526119fb565b910151916040818303910152815180825260208201906020808260051b85010194019260005b8281106111fa57505050505060208060019296019201920190929161116e565b9091929394602080600192601f1986820301885288519060408061123a61122a85516060865260608601906119fb565b86860151858203888701526119fb565b93015191015297019501939291016111da565b604051611259816118f8565b61126283611934565b815261127060018401611934565b602082015260028301805461128481611b0b565b916112926040519384611913565b81835260208301906000526020600020906000905b8382106112ce575050505060019282602092604060039501528152019201920191906110ff565b600360206001926040516112e1816118f8565b6112ea87611934565b81526112f7858801611934565b83820152600287015460408201528152019301910190916112a7565b346101df5760403660031901126101df576004356001600160401b0381116101df57611343903690600401611a8f565b6024356001600160a01b03811691908290036101df5761075860ff9160209360005260048452604060002090611ae5565b346101df5760003660031901126101df576040518060206001549283815201809260016000527fb10e2d527612073b26eecdfd717e6a320cf44b4afac2b0732d9fcbe2b7fa0cf69060005b81811061142157505050816113d5910382611913565b6040519182916020830190602084525180915260408301919060005b8181106113ff575050500390f35b82516001600160a01b03168452859450602093840193909201916001016113f1565b82546001600160a01b03168452602090930192600192830192016113bf565b346101df5760203660031901126101df576001600160a01b03611461611a79565b166000526005602052602060ff604060002054166040519015158152f35b346101df5760203660031901126101df57611498611a79565b6000546001600160a01b0316906114b0338314611caf565b6001600160a01b03169081146116615780600052600560205260ff604060002054161561162d576000818152600560205260408120805460ff191690555b60015490818110156116025782611504826118a3565b905460039190911b1c6001600160a01b0316146115255760019150016114ee565b60001982019182116115ec5761155861154061157c936118a3565b905460039190911b1c6001600160a01b0316916118a3565b81546001600160a01b0393841660039290921b91821b9390911b1916919091179055565b60015480156115d6577fa3b62bc36326052d97ea62d63c3d60308ed4c3ea8ac079dd8499f1e9c4f80c0f91602091600019016115b7816118a3565b81549060018060a01b039060031b1b19169055600155604051908152a1005b634e487b7160e01b600052603160045260246000fd5b634e487b7160e01b600052601160045260246000fd5b505060207fa3b62bc36326052d97ea62d63c3d60308ed4c3ea8ac079dd8499f1e9c4f80c0f91610f3f565b60405162461bcd60e51b815260206004820152600c60248201526b2737ba1030b71030b236b4b760a11b6044820152606490fd5b60405162461bcd60e51b815260206004820152601e60248201527f43616e6e6f742072656d6f7665206f776e65722066726f6d2061646d696e00006044820152606490fd5b346101df5760203660031901126101df576004356001548110156101df576116cf6020916118a3565b905460405160039290921b1c6001600160a01b03168152f35b346101df5760003660031901126101df57600080600254905b8181106117e5575061171282611b0b565b916117206040519384611913565b80835261172f601f1991611b0b565b0160005b8181106117d45750506000805b82811061175d57604051602080825281906106d890820187611a20565b60ff600261177c602061176f85611872565b5060405192838092611c1e565b6003815203019020015460081c1615611798575b600101611740565b906117cc6001916117b16117ab85611872565b50611934565b6117bb8288611c9b565b526117c68187611c9b565b50611c8c565b919050611790565b806060602080938701015201611733565b60ff60026117f7602061176f85611872565b6003815203019020015460081c1615611813575b600101611701565b9161181f600191611c8c565b92905061180b565b346101df5760203660031901126101df576004356002548110156101df5761184e90611872565b610b425761185e6106d891611934565b6040519182916020835260208301906119fb565b60025481101561188d57600260005260206000200190600090565b634e487b7160e01b600052603260045260246000fd5b60015481101561188d57600160005260206000200190600090565b90600182811c921680156118ee575b60208310146118d857565b634e487b7160e01b600052602260045260246000fd5b91607f16916118cd565b606081019081106001600160401b03821117610b5857604052565b90601f801991011681019081106001600160401b03821117610b5857604052565b9060405191826000825492611948846118be565b80845293600181169081156119b6575060011461196f575b5061196d92500383611913565b565b90506000929192526020600020906000915b81831061199a57505090602061196d9282010138611960565b6020919350806001915483858901015201910190918492611981565b90506020925061196d94915060ff191682840152151560051b82010138611960565b60005b8381106119eb5750506000910152565b81810151838201526020016119db565b90602091611a14815180928185528580860191016119d8565b601f01601f1916010190565b9080602083519182815201916020808360051b8301019401926000915b838310611a4c57505050505090565b9091929394602080611a6a600193601f1986820301875289516119fb565b97019301930191939290611a3d565b600435906001600160a01b03821682036101df57565b81601f820112156101df578035906001600160401b038211610b585760405192611ac3601f8401601f191660200185611913565b828452602083830101116101df57816000926020809301838601378301015290565b602090611aff9282604051948386809551938492016119d8565b82019081520301902090565b6001600160401b038111610b585760051b60200190565b9080601f830112156101df578135611b3981611b0b565b92611b476040519485611913565b81845260208085019260051b820101918383116101df5760208201905b838210611b7357505050505090565b81356001600160401b0381116101df57602091611b9587848094880101611a8f565b815201910190611b64565b9080601f830112156101df578135611bb781611b0b565b92611bc56040519485611913565b81845260208085019260051b820101918383116101df5760208201905b838210611bf157505050505090565b81356001600160401b0381116101df57602091611c1387848094880101611b22565b815201910190611be2565b60009291815491611c2e836118be565b9260018116908115611c795750600114611c4757505050565b909192935060005260206000206000905b838210611c655750500190565b600181602092548486015201910190611c58565b60ff191683525050811515909102019150565b60001981146115ec5760010190565b805182101561188d5760209160051b010190565b15611cb657565b60405162461bcd60e51b815260206004820152602160248201527f4f6e6c79206f776e65722063616e2063616c6c20746869732066756e6374696f6044820152603760f91b6064820152608490fd5b15611d0c57565b60405162461bcd60e51b815260206004820152601760248201527f456c656374696f6e20646f6573206e6f742065786973740000000000000000006044820152606490fd5b15611d5857565b60405162461bcd60e51b815260206004820152600f60248201526e496e76616c6964206164647265737360881b6044820152606490fd5b9060015491600160401b831015610b585760018301600155600092600154811015611dfd5760019093527fb10e2d527612073b26eecdfd717e6a320cf44b4afac2b0732d9fcbe2b7fa0cf690920180546001600160a01b0319166001600160a01b0390931692909217909155565b634e487b7160e01b84526032600452602484fd5b15611e1857565b60405162461bcd60e51b815260206004820152602160248201527f4f6e6c792061646d696e2063616e2063616c6c20746869732066756e6374696f6044820152603760f91b6064820152608490fd5b15611e6e57565b60405162461bcd60e51b8152602060048201526014602482015273115b1958dd1a5bdb881a5cc8185c98da1a5d995960621b6044820152606490fd5b91909182516001600160401b038111610b5857611ec782546118be565b601f8111611f6d575b506020601f8211600114611f0b5781929394600092611f00575b50508160011b916000199060031b1c1916179055565b015190503880611eea565b601f1982169083600052806000209160005b818110611f5557509583600195969710611f3c575b505050811b019055565b015160001960f88460031b161c19169055388080611f32565b9192602060018192868b015181550194019201611f1d565b826000526020600020601f830160051c81019160208410611fab575b601f0160051c01905b818110611f9f5750611ed0565b60008155600101611f92565b9091508190611f89565b805482101561188d57600052600360206000209102019060009056fea2646970667358221220a0342d2bc317562c5c607e04cbe277d0f37337ac9e56cd05afd7fffc532c325664736f6c634300081c0033",
  "linkReferences": {},
  "deployedLinkReferences": {}
}